{
  "contractName": "BKCValidatorSet",
  "abi": [
    {
      "inputs": [],
      "name": "alreadyInit",
      "outputs": [
        {
          "internalType": "bool",
          "name": "",
          "type": "bool"
        }
      ],
      "stateMutability": "view",
      "type": "function",
      "constant": true
    },
    {
      "inputs": [
        {
          "internalType": "uint256",
          "name": "",
          "type": "uint256"
        }
      ],
      "name": "currentValidatorSet",
      "outputs": [
        {
          "internalType": "address",
          "name": "consensusAddress",
          "type": "address"
        },
        {
          "internalType": "uint256",
          "name": "stakeAmount",
          "type": "uint256"
        },
        {
          "internalType": "enum IBond.BondStatus",
          "name": "bondStatus",
          "type": "uint8"
        },
        {
          "internalType": "bool",
          "name": "isJail",
          "type": "bool"
        }
      ],
      "stateMutability": "view",
      "type": "function",
      "constant": true
    },
    {
      "inputs": [
        {
          "internalType": "address",
          "name": "",
          "type": "address"
        }
      ],
      "name": "currentValidatorSetMap",
      "outputs": [
        {
          "internalType": "uint256",
          "name": "",
          "type": "uint256"
        }
      ],
      "stateMutability": "view",
      "type": "function",
      "constant": true
    },
    {
      "inputs": [],
      "name": "endTime",
      "outputs": [
        {
          "internalType": "uint256",
          "name": "",
          "type": "uint256"
        }
      ],
      "stateMutability": "view",
      "type": "function",
      "constant": true
    },
    {
      "inputs": [],
      "name": "number_of_validators",
      "outputs": [
        {
          "internalType": "uint256",
          "name": "",
          "type": "uint256"
        }
      ],
      "stateMutability": "view",
      "type": "function",
      "constant": true
    },
    {
      "inputs": [
        {
          "internalType": "address",
          "name": "validatorPoolAddress",
          "type": "address"
        },
        {
          "internalType": "address",
          "name": "systemRewardAddress",
          "type": "address"
        }
      ],
      "name": "init",
      "outputs": [],
      "stateMutability": "nonpayable",
      "type": "function"
    },
    {
      "inputs": [],
      "name": "getValidators",
      "outputs": [
        {
          "components": [
            {
              "internalType": "address",
              "name": "consensusAddress",
              "type": "address"
            },
            {
              "internalType": "uint256",
              "name": "stakeAmount",
              "type": "uint256"
            },
            {
              "internalType": "enum IBond.BondStatus",
              "name": "bondStatus",
              "type": "uint8"
            },
            {
              "internalType": "bool",
              "name": "isJail",
              "type": "bool"
            }
          ],
          "internalType": "struct IValidator.Validator[]",
          "name": "",
          "type": "tuple[]"
        }
      ],
      "stateMutability": "view",
      "type": "function",
      "constant": true
    },
    {
      "inputs": [],
      "name": "updateValidatorSet",
      "outputs": [],
      "stateMutability": "nonpayable",
      "type": "function"
    }
  ],
  "bytecode": "0x60806040526201518060015534801561001757600080fd5b50611751806100276000396000f3fe608060405234801561001057600080fd5b50600436106100885760003560e01c8063a78abc161161005b578063a78abc1614610106578063ad3c9da614610124578063b7ab4db514610154578063f09a40161461017257610088565b80633197cbb61461008d57806367d07b2f146100ab5780636969a25c146100b557806374de1669146100e8575b600080fd5b61009561018e565b6040516100a2919061145d565b60405180910390f35b6100b3610194565b005b6100cf60048036038101906100ca919061119d565b610c42565b6040516100df949392919061139b565b60405180910390f35b6100f0610cbc565b6040516100fd919061145d565b60405180910390f35b61010e610cc2565b60405161011b9190611402565b60405180910390f35b61013e600480360381019061013991906110c9565b610cd3565b60405161014b919061145d565b60405180910390f35b61015c610ceb565b60405161016991906113e0565b60405180910390f35b61018c600480360381019061018791906110f6565b610e4d565b005b60085481565b6000600260ff16600960009054906101000a900473ffffffffffffffffffffffffffffffffffffffff1673ffffffffffffffffffffffffffffffffffffffff16630c42f6316040518163ffffffff1660e01b815260040160206040518083038186803b15801561020357600080fd5b505afa158015610217573d6000803e3d6000fd5b505050506040513d601f19601f8201168201806040525081019061023b91906111ca565b116102e557600960009054906101000a900473ffffffffffffffffffffffffffffffffffffffff1673ffffffffffffffffffffffffffffffffffffffff16630c42f6316040518163ffffffff1660e01b815260040160206040518083038186803b1580156102a857600080fd5b505afa1580156102bc573d6000803e3d6000fd5b505050506040513d601f19601f820116820180604052508101906102e091906111ca565b6102eb565b600260ff165b905060005b6002805490508110156104f3576000600282815481106103135761031261162c565b5b90600052602060002090600302016040518060800160405290816000820160009054906101000a900473ffffffffffffffffffffffffffffffffffffffff1673ffffffffffffffffffffffffffffffffffffffff1673ffffffffffffffffffffffffffffffffffffffff168152602001600182015481526020016002820160009054906101000a900460ff1660028111156103b1576103b06115fd565b5b60028111156103c3576103c26115fd565b5b81526020016002820160019054906101000a900460ff1615151515815250509050600960009054906101000a900473ffffffffffffffffffffffffffffffffffffffff1673ffffffffffffffffffffffffffffffffffffffff166341eeacdb82600001516040518263ffffffff1660e01b81526004016104439190611380565b600060405180830381600087803b15801561045d57600080fd5b505af1158015610471573d6000803e3d6000fd5b5050505060036000826000015173ffffffffffffffffffffffffffffffffffffffff1673ffffffffffffffffffffffffffffffffffffffff168152602001908152602001600020600090556005600083815260200190815260200160002060006101000a81549060ff02191690555080806104eb90611585565b9150506102f0565b50600260006105029190610f7b565b600660006105109190610f9f565b806004819055506000600960009054906101000a900473ffffffffffffffffffffffffffffffffffffffff1673ffffffffffffffffffffffffffffffffffffffff16630c42f6316040518163ffffffff1660e01b815260040160206040518083038186803b15801561058157600080fd5b505afa158015610595573d6000803e3d6000fd5b505050506040513d601f19601f820116820180604052508101906105b991906111ca565b905060005b81811015610765576000600960009054906101000a900473ffffffffffffffffffffffffffffffffffffffff1673ffffffffffffffffffffffffffffffffffffffff166335aa2e44836040518263ffffffff1660e01b8152600401610623919061145d565b60806040518083038186803b15801561063b57600080fd5b505afa15801561064f573d6000803e3d6000fd5b505050506040513d601f19601f820116820180604052508101906106739190611136565b50505090506000600960009054906101000a900473ffffffffffffffffffffffffffffffffffffffff1673ffffffffffffffffffffffffffffffffffffffff1663d7dc81cd836040518263ffffffff1660e01b81526004016106d59190611380565b60206040518083038186803b1580156106ed57600080fd5b505afa158015610701573d6000803e3d6000fd5b505050506040513d601f19601f8201168201806040525081019061072591906111ca565b905060068190806001815401808255809150506001900390600052602060002001600090919091909150555050808061075d90611585565b9150506105be565b5060005b82811015610bb35760008060005b848110156108075782600682815481106107945761079361162c565b5b90600052602060002001541180156107ca57506005600082815260200190815260200160002060009054906101000a900460ff16155b156107f457600681815481106107e3576107e261162c565b5b906000526020600020015492508091505b80806107ff90611585565b915050610777565b5060016005600083815260200190815260200160002060006101000a81548160ff021916908315150217905550600080600080600960009054906101000a900473ffffffffffffffffffffffffffffffffffffffff1673ffffffffffffffffffffffffffffffffffffffff166335aa2e44866040518263ffffffff1660e01b8152600401610895919061145d565b60806040518083038186803b1580156108ad57600080fd5b505afa1580156108c1573d6000803e3d6000fd5b505050506040513d601f19601f820116820180604052508101906108e59190611136565b9350935093509350600960009054906101000a900473ffffffffffffffffffffffffffffffffffffffff1673ffffffffffffffffffffffffffffffffffffffff1663360d80ec856040518263ffffffff1660e01b81526004016109489190611380565b600060405180830381600087803b15801561096257600080fd5b505af1158015610976573d6000803e3d6000fd5b50505050600960009054906101000a900473ffffffffffffffffffffffffffffffffffffffff1673ffffffffffffffffffffffffffffffffffffffff166335aa2e44866040518263ffffffff1660e01b81526004016109d5919061145d565b60806040518083038186803b1580156109ed57600080fd5b505afa158015610a01573d6000803e3d6000fd5b505050506040513d601f19601f82011682018060405250810190610a259190611136565b909192509091505080925050600260405180608001604052808673ffffffffffffffffffffffffffffffffffffffff168152602001858152602001846002811115610a7357610a726115fd565b5b8152602001831515815250908060018154018082558091505060019003906000526020600020906003020160009091909190915060008201518160000160006101000a81548173ffffffffffffffffffffffffffffffffffffffff021916908373ffffffffffffffffffffffffffffffffffffffff1602179055506020820151816001015560408201518160020160006101000a81548160ff02191690836002811115610b2357610b226115fd565b5b021790555060608201518160020160016101000a81548160ff0219169083151502179055505050600187610b5791906114c2565b600360008673ffffffffffffffffffffffffffffffffffffffff1673ffffffffffffffffffffffffffffffffffffffff168152602001908152602001600020819055505050505050508080610bab90611585565b915050610769565b50600a60009054906101000a900473ffffffffffffffffffffffffffffffffffffffff1673ffffffffffffffffffffffffffffffffffffffff16638f73c5ae6040518163ffffffff1660e01b8152600401600060405180830381600087803b158015610c1e57600080fd5b505af1158015610c32573d6000803e3d6000fd5b50505050610c3e610f5e565b5050565b60028181548110610c5257600080fd5b90600052602060002090600302016000915090508060000160009054906101000a900473ffffffffffffffffffffffffffffffffffffffff16908060010154908060020160009054906101000a900460ff16908060020160019054906101000a900460ff16905084565b60045481565b60008054906101000a900460ff1681565b60036020528060005260406000206000915090505481565b606060008054906101000a900460ff16610d3a576040517f08c379a0000000000000000000000000000000000000000000000000000000008152600401610d319061141d565b60405180910390fd5b6002805480602002602001604051908101604052809291908181526020016000905b82821015610e4457838290600052602060002090600302016040518060800160405290816000820160009054906101000a900473ffffffffffffffffffffffffffffffffffffffff1673ffffffffffffffffffffffffffffffffffffffff1673ffffffffffffffffffffffffffffffffffffffff168152602001600182015481526020016002820160009054906101000a900460ff166002811115610e0457610e036115fd565b5b6002811115610e1657610e156115fd565b5b81526020016002820160019054906101000a900460ff16151515158152505081526020019060010190610d5c565b50505050905090565b60008054906101000a900460ff1615610e9b576040517f08c379a0000000000000000000000000000000000000000000000000000000008152600401610e929061143d565b60405180910390fd5b4260088190555081600960006101000a81548173ffffffffffffffffffffffffffffffffffffffff021916908373ffffffffffffffffffffffffffffffffffffffff16021790555080600a60006101000a81548173ffffffffffffffffffffffffffffffffffffffff021916908373ffffffffffffffffffffffffffffffffffffffff160217905550610f2c610194565b60015442610f3a91906114c2565b60088190555060016000806101000a81548160ff0219169083151502179055505050565b60015460086000828254610f7291906114c2565b92505081905550565b5080546000825560030290600052602060002090810190610f9c9190610fc0565b50565b5080546000825590600052602060002090810190610fbd919061102e565b50565b5b8082111561102a57600080820160006101000a81549073ffffffffffffffffffffffffffffffffffffffff021916905560018201600090556002820160006101000a81549060ff02191690556002820160016101000a81549060ff021916905550600301610fc1565b5090565b5b8082111561104757600081600090555060010161102f565b5090565b60008135905061105a816116c6565b92915050565b60008151905061106f816116c6565b92915050565b600081519050611084816116dd565b92915050565b600081519050611099816116f4565b92915050565b6000813590506110ae81611704565b92915050565b6000815190506110c381611704565b92915050565b6000602082840312156110df576110de61165b565b5b60006110ed8482850161104b565b91505092915050565b6000806040838503121561110d5761110c61165b565b5b600061111b8582860161104b565b925050602061112c8582860161104b565b9150509250929050565b600080600080608085870312156111505761114f61165b565b5b600061115e87828801611060565b945050602061116f878288016110b4565b93505060406111808782880161108a565b925050606061119187828801611075565b91505092959194509250565b6000602082840312156111b3576111b261165b565b5b60006111c18482850161109f565b91505092915050565b6000602082840312156111e0576111df61165b565b5b60006111ee848285016110b4565b91505092915050565b6000611203838361130d565b60808301905092915050565b61121881611518565b82525050565b61122781611518565b82525050565b600061123882611488565b61124281856114a0565b935061124d83611478565b8060005b8381101561127e57815161126588826111f7565b975061127083611493565b925050600181019050611251565b5085935050505092915050565b6112948161152a565b82525050565b6112a38161152a565b82525050565b6112b281611573565b82525050565b6112c181611573565b82525050565b60006112d46019836114b1565b91506112df82611660565b602082019050919050565b60006112f76019836114b1565b915061130282611689565b602082019050919050565b608082016000820151611323600085018261120f565b5060208201516113366020850182611362565b50604082015161134960408501826112a9565b50606082015161135c606085018261128b565b50505050565b61136b81611569565b82525050565b61137a81611569565b82525050565b6000602082019050611395600083018461121e565b92915050565b60006080820190506113b0600083018761121e565b6113bd6020830186611371565b6113ca60408301856112b8565b6113d7606083018461129a565b95945050505050565b600060208201905081810360008301526113fa818461122d565b905092915050565b6000602082019050611417600083018461129a565b92915050565b60006020820190508181036000830152611436816112c7565b9050919050565b60006020820190508181036000830152611456816112ea565b9050919050565b60006020820190506114726000830184611371565b92915050565b6000819050602082019050919050565b600081519050919050565b6000602082019050919050565b600082825260208201905092915050565b600082825260208201905092915050565b60006114cd82611569565b91506114d883611569565b9250827fffffffffffffffffffffffffffffffffffffffffffffffffffffffffffffffff0382111561150d5761150c6115ce565b5b828201905092915050565b600061152382611549565b9050919050565b60008115159050919050565b6000819050611544826116b2565b919050565b600073ffffffffffffffffffffffffffffffffffffffff82169050919050565b6000819050919050565b600061157e82611536565b9050919050565b600061159082611569565b91507fffffffffffffffffffffffffffffffffffffffffffffffffffffffffffffffff8214156115c3576115c26115ce565b5b600182019050919050565b7f4e487b7100000000000000000000000000000000000000000000000000000000600052601160045260246000fd5b7f4e487b7100000000000000000000000000000000000000000000000000000000600052602160045260246000fd5b7f4e487b7100000000000000000000000000000000000000000000000000000000600052603260045260246000fd5b600080fd5b7f74686520636f6e7472616374206e6f7420696e69742079657400000000000000600082015250565b7f74686520636f6e747261637420616c726561647920696e697400000000000000600082015250565b600381106116c3576116c26115fd565b5b50565b6116cf81611518565b81146116da57600080fd5b50565b6116e68161152a565b81146116f157600080fd5b50565b6003811061170157600080fd5b50565b61170d81611569565b811461171857600080fd5b5056fea26469706673582212200801d8318603351af02b5237ca7fb590cf0991fc045be74bb1f67214432922ba64736f6c63430008060033",
  "immutableReferences": {},
  "source": "pragma solidity <=0.8.6;\n\nimport \"./System.sol\";\nimport \"./Interface/IValidator.sol\";\nimport \"./Interface/IBond.sol\";\nimport \"./ValidatorPool.sol\";\nimport \"./SystemReward.sol\";\n\n/*[\n    [\"0x70F657164e5b75689b64B7fd1fA275F334f28e18\",\"35481719561823448621\",\"BondStatus.UNBONDED\",63306535440133,false],\n    [\"0x2465176C461AfB316ebc773C61fAEe85A6515DAA\", \"35481719561823448621\", \"BondStatus.UNBONDED\",  64328738321847, false]\n  ]\n*/\n/*\n  [\n    [\"0x70F657164e5b75689b64B7fd1fA275F334f28e18\",63306535440133],\n    [\"0x2465176C461AfB316ebc773C61fAEe85A6515DAA\",64328738321847]\n  ]\n*/\n\ncontract BKCValidatorSet is System, IValidator {\n    Validator[] public currentValidatorSet; // the array holding the validator structs\n    mapping(address => uint256) public currentValidatorSetMap; // map validator's consensus address to the position in the array\n\n    uint256 public number_of_validators;\n\n    mapping(uint256 => bool) private alreadyIn;\n    uint256[] private powers;\n\n    Validator[] private tmpValidatorSet;\n    uint256 public endTime;\n\n    ValidatorPool private vldpool;\n    SystemReward private systemreward;\n\n    modifier onlyAfterEndTime() {\n        require(block.timestamp >= endTime, \"can't update before end time\");\n        _;\n    }\n\n    modifier onlyValidatorInValidatorSet(address consensusAddress) {\n        require(\n            currentValidatorSetMap[consensusAddress] > 0,\n            \"not allow for non-active validator\"\n        );\n        _;\n    }\n\n    function updateEndTime() private {\n        endTime += unbondingPeriod;\n    }\n\n    function init(address validatorPoolAddress, address systemRewardAddress)\n        external\n        onlyNotInit\n    {\n        endTime = block.timestamp;\n        vldpool = ValidatorPool(validatorPoolAddress);\n        systemreward = SystemReward(systemRewardAddress);\n        updateValidatorSet();\n        endTime = block.timestamp + unbondingPeriod;\n        alreadyInit = true;\n    }\n\n    function getValidators() public view onlyInit returns (Validator[] memory) {\n        return currentValidatorSet;\n    }\n\n    // need to add onlyAfterEndTime here as modifier\n    function updateValidatorSet() public {\n        uint256 _number_of_validators = vldpool.NumberOfValidator() >\n            MAX_NUMBER_OF_VALIDATORS_IN_VALIDATOR_SET\n            ? MAX_NUMBER_OF_VALIDATORS_IN_VALIDATOR_SET\n            : vldpool.NumberOfValidator();\n        for (uint256 i = 0; i < currentValidatorSet.length; i++) {\n            Validator memory validator = currentValidatorSet[i];\n            vldpool.unBondValidator(validator.consensusAddress); // change the bond state to UNBONDED\n            delete currentValidatorSetMap[validator.consensusAddress];\n\n            delete alreadyIn[i];\n        }\n        delete currentValidatorSet;\n\n        delete powers;\n\n        number_of_validators = _number_of_validators;\n\n        // TODO : change to update validator by choosing the maximum number_of_validators from the pool instead of constant sorting.\n        uint256 len = vldpool.NumberOfValidator();\n        for (uint256 j = 0; j < len; j++) {\n            (address a, , , ) = vldpool.validators(j);\n            uint256 power = vldpool.getTotalPower(a);\n            powers.push(power);\n        }\n        for (uint256 i = 0; i < _number_of_validators; i++) {\n            uint256 max_power = 0;\n            uint256 max_index = 0;\n            for (uint256 j = 0; j < len; j++) {\n                if (powers[j] > max_power && !alreadyIn[j]) {\n                    max_power = powers[j];\n                    max_index = j;\n                }\n            }\n            alreadyIn[max_index] = true;\n            (address a, uint256 stake, BondStatus b, bool isJail) = vldpool\n            .validators(max_index);\n            vldpool.bondValidator(a); // bond the validator\n            (, , b, ) = vldpool.validators(max_index);\n            currentValidatorSet.push(Validator(a, stake, b, isJail));\n            currentValidatorSetMap[a] = i + 1;\n        }\n\n        systemreward.distributeReward(); // distribute reward\n\n        // uint j = 0;\n\n        // for(uint i = 0; i < number_of_validators; i++){\n        //     (address a, uint stake, BondStatus b, bool isJail) = vldpool.validators(i);\n        //     if (!isJail){\n        //         Validator memory v = Validator(a,stake,b,isJail);\n        //         currentValidatorSet.push(v);\n        //         vldpool.bondValidator(v.consensusAddress); // change the bond state to BONDED\n        //         currentValidatorSetMap[v.consensusAddress] = j+1;\n        //         j++;\n        //     }\n        // }\n        updateEndTime(); // for the next round.\n    }\n}\n",
  "sourcePath": "/Users/sakonthephamongkhol/Downloads/Intern/BKC-PoSA/truffle/contracts/BKCValidatorSet.sol",
  "compiler": {
    "name": "solc",
    "version": "0.8.6+commit.11564f7e.Emscripten.clang"
  },
  "schemaVersion": "3.4.1",
  "updatedAt": "2021-06-29T11:03:19.662Z",
  "networkType": "ethereum",
  "devdoc": {
    "kind": "dev",
    "methods": {},
    "version": 1
  },
  "userdoc": {
    "kind": "user",
    "methods": {},
    "version": 1
  }
}