{
  "contractName": "KBD",
  "abi": [
    {
      "inputs": [],
      "stateMutability": "nonpayable",
      "type": "constructor"
    },
    {
      "anonymous": false,
      "inputs": [
        {
          "indexed": true,
          "internalType": "address",
          "name": "owner",
          "type": "address"
        },
        {
          "indexed": true,
          "internalType": "address",
          "name": "spender",
          "type": "address"
        },
        {
          "indexed": false,
          "internalType": "uint256",
          "name": "value",
          "type": "uint256"
        }
      ],
      "name": "Approval",
      "type": "event"
    },
    {
      "anonymous": false,
      "inputs": [
        {
          "indexed": true,
          "internalType": "address",
          "name": "from",
          "type": "address"
        },
        {
          "indexed": true,
          "internalType": "address",
          "name": "to",
          "type": "address"
        },
        {
          "indexed": false,
          "internalType": "uint256",
          "name": "value",
          "type": "uint256"
        }
      ],
      "name": "Transfer",
      "type": "event"
    },
    {
      "inputs": [
        {
          "internalType": "address",
          "name": "owner",
          "type": "address"
        },
        {
          "internalType": "address",
          "name": "spender",
          "type": "address"
        }
      ],
      "name": "allowance",
      "outputs": [
        {
          "internalType": "uint256",
          "name": "",
          "type": "uint256"
        }
      ],
      "stateMutability": "view",
      "type": "function"
    },
    {
      "inputs": [
        {
          "internalType": "address",
          "name": "spender",
          "type": "address"
        },
        {
          "internalType": "uint256",
          "name": "amount",
          "type": "uint256"
        }
      ],
      "name": "approve",
      "outputs": [
        {
          "internalType": "bool",
          "name": "",
          "type": "bool"
        }
      ],
      "stateMutability": "nonpayable",
      "type": "function"
    },
    {
      "inputs": [
        {
          "internalType": "address",
          "name": "account",
          "type": "address"
        }
      ],
      "name": "balanceOf",
      "outputs": [
        {
          "internalType": "uint256",
          "name": "",
          "type": "uint256"
        }
      ],
      "stateMutability": "view",
      "type": "function"
    },
    {
      "inputs": [],
      "name": "decimals",
      "outputs": [
        {
          "internalType": "uint8",
          "name": "",
          "type": "uint8"
        }
      ],
      "stateMutability": "view",
      "type": "function"
    },
    {
      "inputs": [
        {
          "internalType": "address",
          "name": "spender",
          "type": "address"
        },
        {
          "internalType": "uint256",
          "name": "subtractedValue",
          "type": "uint256"
        }
      ],
      "name": "decreaseAllowance",
      "outputs": [
        {
          "internalType": "bool",
          "name": "",
          "type": "bool"
        }
      ],
      "stateMutability": "nonpayable",
      "type": "function"
    },
    {
      "inputs": [],
      "name": "exchangeRate",
      "outputs": [
        {
          "internalType": "uint256",
          "name": "",
          "type": "uint256"
        }
      ],
      "stateMutability": "view",
      "type": "function"
    },
    {
      "inputs": [
        {
          "internalType": "address",
          "name": "spender",
          "type": "address"
        },
        {
          "internalType": "uint256",
          "name": "addedValue",
          "type": "uint256"
        }
      ],
      "name": "increaseAllowance",
      "outputs": [
        {
          "internalType": "bool",
          "name": "",
          "type": "bool"
        }
      ],
      "stateMutability": "nonpayable",
      "type": "function"
    },
    {
      "inputs": [],
      "name": "name",
      "outputs": [
        {
          "internalType": "string",
          "name": "",
          "type": "string"
        }
      ],
      "stateMutability": "view",
      "type": "function"
    },
    {
      "inputs": [],
      "name": "symbol",
      "outputs": [
        {
          "internalType": "string",
          "name": "",
          "type": "string"
        }
      ],
      "stateMutability": "view",
      "type": "function"
    },
    {
      "inputs": [],
      "name": "totalSupply",
      "outputs": [
        {
          "internalType": "uint256",
          "name": "",
          "type": "uint256"
        }
      ],
      "stateMutability": "view",
      "type": "function"
    },
    {
      "inputs": [
        {
          "internalType": "address",
          "name": "recipient",
          "type": "address"
        },
        {
          "internalType": "uint256",
          "name": "amount",
          "type": "uint256"
        }
      ],
      "name": "transfer",
      "outputs": [
        {
          "internalType": "bool",
          "name": "",
          "type": "bool"
        }
      ],
      "stateMutability": "nonpayable",
      "type": "function"
    },
    {
      "inputs": [
        {
          "internalType": "address",
          "name": "sender",
          "type": "address"
        },
        {
          "internalType": "address",
          "name": "recipient",
          "type": "address"
        },
        {
          "internalType": "uint256",
          "name": "amount",
          "type": "uint256"
        }
      ],
      "name": "transferFrom",
      "outputs": [
        {
          "internalType": "bool",
          "name": "",
          "type": "bool"
        }
      ],
      "stateMutability": "nonpayable",
      "type": "function"
    },
    {
      "inputs": [],
      "name": "fund",
      "outputs": [],
      "stateMutability": "payable",
      "type": "function"
    },
    {
      "inputs": [
        {
          "internalType": "address",
          "name": "account",
          "type": "address"
        },
        {
          "internalType": "uint256",
          "name": "amount",
          "type": "uint256"
        }
      ],
      "name": "burn",
      "outputs": [],
      "stateMutability": "nonpayable",
      "type": "function"
    },
    {
      "inputs": [
        {
          "internalType": "address",
          "name": "account",
          "type": "address"
        },
        {
          "internalType": "uint256",
          "name": "amount",
          "type": "uint256"
        }
      ],
      "name": "mint",
      "outputs": [],
      "stateMutability": "nonpayable",
      "type": "function"
    },
    {
      "inputs": [],
      "name": "this_balance",
      "outputs": [
        {
          "internalType": "uint256",
          "name": "",
          "type": "uint256"
        }
      ],
      "stateMutability": "view",
      "type": "function"
    },
    {
      "inputs": [],
      "name": "buy",
      "outputs": [],
      "stateMutability": "payable",
      "type": "function"
    },
    {
      "inputs": [
        {
          "internalType": "uint256",
          "name": "amount",
          "type": "uint256"
        }
      ],
      "name": "sell",
      "outputs": [],
      "stateMutability": "nonpayable",
      "type": "function"
    }
  ],
  "bytecode": "0x60806040526113886006557360bb6c1b4a0f5b1ea820be6c762384982b8a658c600760006101000a81548173ffffffffffffffffffffffffffffffffffffffff021916908373ffffffffffffffffffffffffffffffffffffffff1602179055503480156200006c57600080fd5b506040518060400160405280600581526020017f53616b6f6e0000000000000000000000000000000000000000000000000000008152506040518060400160405280600381526020017f57494e00000000000000000000000000000000000000000000000000000000008152508160039080519060200190620000f192919062000322565b5080600490805190602001906200010a92919062000322565b5050506200014f33620001226200019660201b60201c565b60ff16600a6200013391906200052d565b620f42406200014391906200066a565b6200019f60201b60201c565b33600560006101000a81548173ffffffffffffffffffffffffffffffffffffffff021916908373ffffffffffffffffffffffffffffffffffffffff16021790555062000776565b60006012905090565b600073ffffffffffffffffffffffffffffffffffffffff168273ffffffffffffffffffffffffffffffffffffffff16141562000212576040517f08c379a0000000000000000000000000000000000000000000000000000000008152600401620002099062000425565b60405180910390fd5b62000226600083836200031860201b60201c565b80600260008282546200023a919062000475565b92505081905550806000808473ffffffffffffffffffffffffffffffffffffffff1673ffffffffffffffffffffffffffffffffffffffff168152602001908152602001600020600082825462000291919062000475565b925050819055508173ffffffffffffffffffffffffffffffffffffffff16600073ffffffffffffffffffffffffffffffffffffffff167fddf252ad1be2c89b69c2b068fc378daa952ba7f163c4a11628f55a4df523b3ef83604051620002f8919062000447565b60405180910390a362000314600083836200031d60201b60201c565b5050565b505050565b505050565b8280546200033090620006d5565b90600052602060002090601f016020900481019282620003545760008555620003a0565b82601f106200036f57805160ff1916838001178555620003a0565b82800160010185558215620003a0579182015b828111156200039f57825182559160200191906001019062000382565b5b509050620003af9190620003b3565b5090565b5b80821115620003ce576000816000905550600101620003b4565b5090565b6000620003e1601f8362000464565b91507f45524332303a206d696e7420746f20746865207a65726f2061646472657373006000830152602082019050919050565b6200041f81620006cb565b82525050565b600060208201905081810360008301526200044081620003d2565b9050919050565b60006020820190506200045e600083018462000414565b92915050565b600082825260208201905092915050565b60006200048282620006cb565b91506200048f83620006cb565b9250827fffffffffffffffffffffffffffffffffffffffffffffffffffffffffffffffff03821115620004c757620004c66200070b565b5b828201905092915050565b6000808291508390505b60018511156200052457808604811115620004fc57620004fb6200070b565b5b60018516156200050c5780820291505b80810290506200051c8562000769565b9450620004dc565b94509492505050565b60006200053a82620006cb565b91506200054783620006cb565b9250620005767fffffffffffffffffffffffffffffffffffffffffffffffffffffffffffffffff84846200057e565b905092915050565b60008262000590576001905062000663565b81620005a0576000905062000663565b8160018114620005b95760028114620005c457620005fa565b600191505062000663565b60ff841115620005d957620005d86200070b565b5b8360020a915084821115620005f357620005f26200070b565b5b5062000663565b5060208310610133831016604e8410600b8410161715620006345782820a9050838111156200062e576200062d6200070b565b5b62000663565b620006438484846001620004d2565b925090508184048111156200065d576200065c6200070b565b5b81810290505b9392505050565b60006200067782620006cb565b91506200068483620006cb565b9250817fffffffffffffffffffffffffffffffffffffffffffffffffffffffffffffffff0483118215151615620006c057620006bf6200070b565b5b828202905092915050565b6000819050919050565b60006002820490506001821680620006ee57607f821691505b602082108114156200070557620007046200073a565b5b50919050565b7f4e487b7100000000000000000000000000000000000000000000000000000000600052601160045260246000fd5b7f4e487b7100000000000000000000000000000000000000000000000000000000600052602260045260246000fd5b60008160011c9050919050565b61223e80620007866000396000f3fe6080604052600436106101095760003560e01c806395d89b4111610095578063a9059cbb11610064578063a9059cbb14610372578063b60d4288146103af578063dd62ed3e146103b9578063e3faecc2146103f6578063e4849b321461042157610109565b806395d89b41146102d75780639dc29fac14610302578063a457c2d71461032b578063a6f2ae3a1461036857610109565b8063313ce567116100dc578063313ce567146101de57806339509351146102095780633ba0b9a91461024657806340c10f191461027157806370a082311461029a57610109565b806306fdde031461010e578063095ea7b31461013957806318160ddd1461017657806323b872dd146101a1575b600080fd5b34801561011a57600080fd5b5061012361044a565b6040516101309190611bbb565b60405180910390f35b34801561014557600080fd5b50610160600480360381019061015b91906115ff565b6104dc565b60405161016d9190611ba0565b60405180910390f35b34801561018257600080fd5b5061018b6104fa565b6040516101989190611d9d565b60405180910390f35b3480156101ad57600080fd5b506101c860048036038101906101c391906115b0565b610504565b6040516101d59190611ba0565b60405180910390f35b3480156101ea57600080fd5b506101f36105fc565b6040516102009190611db8565b60405180910390f35b34801561021557600080fd5b50610230600480360381019061022b91906115ff565b610605565b60405161023d9190611ba0565b60405180910390f35b34801561025257600080fd5b5061025b6106b1565b6040516102689190611d9d565b60405180910390f35b34801561027d57600080fd5b50610298600480360381019061029391906115ff565b6106b7565b005b3480156102a657600080fd5b506102c160048036038101906102bc919061154b565b610776565b6040516102ce9190611d9d565b60405180910390f35b3480156102e357600080fd5b506102ec6107be565b6040516102f99190611bbb565b60405180910390f35b34801561030e57600080fd5b50610329600480360381019061032491906115ff565b610850565b005b34801561033757600080fd5b50610352600480360381019061034d91906115ff565b61090f565b60405161035f9190611ba0565b60405180910390f35b6103706109fa565b005b34801561037e57600080fd5b50610399600480360381019061039491906115ff565b610afe565b6040516103a69190611ba0565b60405180910390f35b6103b7610b1c565b005b3480156103c557600080fd5b506103e060048036038101906103db9190611574565b610b61565b6040516103ed9190611d9d565b60405180910390f35b34801561040257600080fd5b5061040b610be8565b6040516104189190611d9d565b60405180910390f35b34801561042d57600080fd5b506104486004803603810190610443919061163b565b610c80565b005b606060038054610459906120fd565b80601f0160208091040260200160405190810160405280929190818152602001828054610485906120fd565b80156104d25780601f106104a7576101008083540402835291602001916104d2565b820191906000526020600020905b8154815290600101906020018083116104b557829003601f168201915b5050505050905090565b60006104f06104e9610d68565b8484610d70565b6001905092915050565b6000600254905090565b6000610511848484610f3b565b6000600160008673ffffffffffffffffffffffffffffffffffffffff1673ffffffffffffffffffffffffffffffffffffffff168152602001908152602001600020600061055c610d68565b73ffffffffffffffffffffffffffffffffffffffff1673ffffffffffffffffffffffffffffffffffffffff168152602001908152602001600020549050828110156105dc576040517f08c379a00000000000000000000000000000000000000000000000000000000081526004016105d390611cbd565b60405180910390fd5b6105f0856105e8610d68565b858403610d70565b60019150509392505050565b60006012905090565b60006106a7610612610d68565b848460016000610620610d68565b73ffffffffffffffffffffffffffffffffffffffff1673ffffffffffffffffffffffffffffffffffffffff16815260200190815260200160002060008873ffffffffffffffffffffffffffffffffffffffff1673ffffffffffffffffffffffffffffffffffffffff168152602001908152602001600020546106a29190611def565b610d70565b6001905092915050565b60065481565b600560009054906101000a900473ffffffffffffffffffffffffffffffffffffffff1673ffffffffffffffffffffffffffffffffffffffff163373ffffffffffffffffffffffffffffffffffffffff1614610747576040517f08c379a000000000000000000000000000000000000000000000000000000000815260040161073e90611c3d565b60405180910390fd5b610772826107536105fc565b60ff16600a6107629190611ec9565b8361076d9190611fe7565b6111bc565b5050565b60008060008373ffffffffffffffffffffffffffffffffffffffff1673ffffffffffffffffffffffffffffffffffffffff168152602001908152602001600020549050919050565b6060600480546107cd906120fd565b80601f01602080910402602001604051908101604052809291908181526020018280546107f9906120fd565b80156108465780601f1061081b57610100808354040283529160200191610846565b820191906000526020600020905b81548152906001019060200180831161082957829003601f168201915b5050505050905090565b600560009054906101000a900473ffffffffffffffffffffffffffffffffffffffff1673ffffffffffffffffffffffffffffffffffffffff163373ffffffffffffffffffffffffffffffffffffffff16146108e0576040517f08c379a00000000000000000000000000000000000000000000000000000000081526004016108d790611c3d565b60405180910390fd5b61090b826108ec6105fc565b60ff16600a6108fb9190611ec9565b836109069190611fe7565b61131c565b5050565b6000806001600061091e610d68565b73ffffffffffffffffffffffffffffffffffffffff1673ffffffffffffffffffffffffffffffffffffffff16815260200190815260200160002060008573ffffffffffffffffffffffffffffffffffffffff1673ffffffffffffffffffffffffffffffffffffffff168152602001908152602001600020549050828110156109db576040517f08c379a00000000000000000000000000000000000000000000000000000000081526004016109d290611d5d565b60405180910390fd5b6109ef6109e6610d68565b85858403610d70565b600191505092915050565b60003411610a3d576040517f08c379a0000000000000000000000000000000000000000000000000000000008152600401610a3490611c9d565b60405180910390fd5b600060065434610a4d9190611fe7565b905080610a7b600760009054906101000a900473ffffffffffffffffffffffffffffffffffffffff16610776565b1115610abc57610aad600760009054906101000a900473ffffffffffffffffffffffffffffffffffffffff168261131c565b610ab733826111bc565b610af3565b610ac633826111bc565b610af2600760009054906101000a900473ffffffffffffffffffffffffffffffffffffffff16826111bc565b5b610afb6114f3565b50565b6000610b12610b0b610d68565b8484610f3b565b6001905092915050565b60003411610b5f576040517f08c379a0000000000000000000000000000000000000000000000000000000008152600401610b5690611d1d565b60405180910390fd5b565b6000600160008473ffffffffffffffffffffffffffffffffffffffff1673ffffffffffffffffffffffffffffffffffffffff16815260200190815260200160002060008373ffffffffffffffffffffffffffffffffffffffff1673ffffffffffffffffffffffffffffffffffffffff16815260200190815260200160002054905092915050565b6000600560009054906101000a900473ffffffffffffffffffffffffffffffffffffffff1673ffffffffffffffffffffffffffffffffffffffff163373ffffffffffffffffffffffffffffffffffffffff1614610c7a576040517f08c379a0000000000000000000000000000000000000000000000000000000008152600401610c7190611c3d565b60405180910390fd5b47905090565b80610c8a33610776565b1015610ccb576040517f08c379a0000000000000000000000000000000000000000000000000000000008152600401610cc290611c5d565b60405180910390fd5b600060065482610cdb9190611e45565b9050600033905081471015610cef57600080fd5b8073ffffffffffffffffffffffffffffffffffffffff166108fc839081150290604051600060405180830381858888f19350505050158015610d35573d6000803e3d6000fd5b50610d62600760009054906101000a900473ffffffffffffffffffffffffffffffffffffffff1684610afe565b50505050565b600033905090565b600073ffffffffffffffffffffffffffffffffffffffff168373ffffffffffffffffffffffffffffffffffffffff161415610de0576040517f08c379a0000000000000000000000000000000000000000000000000000000008152600401610dd790611d3d565b60405180910390fd5b600073ffffffffffffffffffffffffffffffffffffffff168273ffffffffffffffffffffffffffffffffffffffff161415610e50576040517f08c379a0000000000000000000000000000000000000000000000000000000008152600401610e4790611c1d565b60405180910390fd5b80600160008573ffffffffffffffffffffffffffffffffffffffff1673ffffffffffffffffffffffffffffffffffffffff16815260200190815260200160002060008473ffffffffffffffffffffffffffffffffffffffff1673ffffffffffffffffffffffffffffffffffffffff168152602001908152602001600020819055508173ffffffffffffffffffffffffffffffffffffffff168373ffffffffffffffffffffffffffffffffffffffff167f8c5be1e5ebec7d5bd14f71427d1e84f3dd0314c0f7b2291e5b200ac8c7c3b92583604051610f2e9190611d9d565b60405180910390a3505050565b600073ffffffffffffffffffffffffffffffffffffffff168373ffffffffffffffffffffffffffffffffffffffff161415610fab576040517f08c379a0000000000000000000000000000000000000000000000000000000008152600401610fa290611cfd565b60405180910390fd5b600073ffffffffffffffffffffffffffffffffffffffff168273ffffffffffffffffffffffffffffffffffffffff16141561101b576040517f08c379a000000000000000000000000000000000000000000000000000000000815260040161101290611bdd565b60405180910390fd5b611026838383611517565b60008060008573ffffffffffffffffffffffffffffffffffffffff1673ffffffffffffffffffffffffffffffffffffffff168152602001908152602001600020549050818110156110ac576040517f08c379a00000000000000000000000000000000000000000000000000000000081526004016110a390611c7d565b60405180910390fd5b8181036000808673ffffffffffffffffffffffffffffffffffffffff1673ffffffffffffffffffffffffffffffffffffffff16815260200190815260200160002081905550816000808573ffffffffffffffffffffffffffffffffffffffff1673ffffffffffffffffffffffffffffffffffffffff168152602001908152602001600020600082825461113f9190611def565b925050819055508273ffffffffffffffffffffffffffffffffffffffff168473ffffffffffffffffffffffffffffffffffffffff167fddf252ad1be2c89b69c2b068fc378daa952ba7f163c4a11628f55a4df523b3ef846040516111a39190611d9d565b60405180910390a36111b684848461151c565b50505050565b600073ffffffffffffffffffffffffffffffffffffffff168273ffffffffffffffffffffffffffffffffffffffff16141561122c576040517f08c379a000000000000000000000000000000000000000000000000000000000815260040161122390611d7d565b60405180910390fd5b61123860008383611517565b806002600082825461124a9190611def565b92505081905550806000808473ffffffffffffffffffffffffffffffffffffffff1673ffffffffffffffffffffffffffffffffffffffff168152602001908152602001600020600082825461129f9190611def565b925050819055508173ffffffffffffffffffffffffffffffffffffffff16600073ffffffffffffffffffffffffffffffffffffffff167fddf252ad1be2c89b69c2b068fc378daa952ba7f163c4a11628f55a4df523b3ef836040516113049190611d9d565b60405180910390a36113186000838361151c565b5050565b600073ffffffffffffffffffffffffffffffffffffffff168273ffffffffffffffffffffffffffffffffffffffff16141561138c576040517f08c379a000000000000000000000000000000000000000000000000000000000815260040161138390611cdd565b60405180910390fd5b61139882600083611517565b60008060008473ffffffffffffffffffffffffffffffffffffffff1673ffffffffffffffffffffffffffffffffffffffff1681526020019081526020016000205490508181101561141e576040517f08c379a000000000000000000000000000000000000000000000000000000000815260040161141590611bfd565b60405180910390fd5b8181036000808573ffffffffffffffffffffffffffffffffffffffff1673ffffffffffffffffffffffffffffffffffffffff1681526020019081526020016000208190555081600260008282546114759190612041565b92505081905550600073ffffffffffffffffffffffffffffffffffffffff168373ffffffffffffffffffffffffffffffffffffffff167fddf252ad1be2c89b69c2b068fc378daa952ba7f163c4a11628f55a4df523b3ef846040516114da9190611d9d565b60405180910390a36114ee8360008461151c565b505050565b600a6006546115029190611e45565b60065461150f9190611def565b600681905550565b505050565b505050565b600081359050611530816121da565b92915050565b600081359050611545816121f1565b92915050565b60006020828403121561155d57600080fd5b600061156b84828501611521565b91505092915050565b6000806040838503121561158757600080fd5b600061159585828601611521565b92505060206115a685828601611521565b9150509250929050565b6000806000606084860312156115c557600080fd5b60006115d386828701611521565b93505060206115e486828701611521565b92505060406115f586828701611536565b9150509250925092565b6000806040838503121561161257600080fd5b600061162085828601611521565b925050602061163185828601611536565b9150509250929050565b60006020828403121561164d57600080fd5b600061165b84828501611536565b91505092915050565b61166d81612087565b82525050565b600061167e82611dd3565b6116888185611dde565b93506116988185602086016120ca565b6116a1816121bc565b840191505092915050565b60006116b9602383611dde565b91507f45524332303a207472616e7366657220746f20746865207a65726f206164647260008301527f65737300000000000000000000000000000000000000000000000000000000006020830152604082019050919050565b600061171f602283611dde565b91507f45524332303a206275726e20616d6f756e7420657863656564732062616c616e60008301527f63650000000000000000000000000000000000000000000000000000000000006020830152604082019050919050565b6000611785602283611dde565b91507f45524332303a20617070726f766520746f20746865207a65726f20616464726560008301527f73730000000000000000000000000000000000000000000000000000000000006020830152604082019050919050565b60006117eb600a83611dde565b91507f61646d696e206f6e6c79000000000000000000000000000000000000000000006000830152602082019050919050565b600061182b601a83611dde565b91507f6e6f7420656e6f7567682062616c616e636520746f2073656c6c0000000000006000830152602082019050919050565b600061186b602683611dde565b91507f45524332303a207472616e7366657220616d6f756e742065786365656473206260008301527f616c616e636500000000000000000000000000000000000000000000000000006020830152604082019050919050565b60006118d1601b83611dde565b91507f63616e27742062757920616e792077697468207a65726f2045544800000000006000830152602082019050919050565b6000611911602883611dde565b91507f45524332303a207472616e7366657220616d6f756e742065786365656473206160008301527f6c6c6f77616e63650000000000000000000000000000000000000000000000006020830152604082019050919050565b6000611977602183611dde565b91507f45524332303a206275726e2066726f6d20746865207a65726f2061646472657360008301527f73000000000000000000000000000000000000000000000000000000000000006020830152604082019050919050565b60006119dd602583611dde565b91507f45524332303a207472616e736665722066726f6d20746865207a65726f20616460008301527f64726573730000000000000000000000000000000000000000000000000000006020830152604082019050919050565b6000611a43601883611dde565b91507f63616e27742066756e642077697468203020616d6f756e7400000000000000006000830152602082019050919050565b6000611a83602483611dde565b91507f45524332303a20617070726f76652066726f6d20746865207a65726f2061646460008301527f72657373000000000000000000000000000000000000000000000000000000006020830152604082019050919050565b6000611ae9602583611dde565b91507f45524332303a2064656372656173656420616c6c6f77616e63652062656c6f7760008301527f207a65726f0000000000000000000000000000000000000000000000000000006020830152604082019050919050565b6000611b4f601f83611dde565b91507f45524332303a206d696e7420746f20746865207a65726f2061646472657373006000830152602082019050919050565b611b8b816120b3565b82525050565b611b9a816120bd565b82525050565b6000602082019050611bb56000830184611664565b92915050565b60006020820190508181036000830152611bd58184611673565b905092915050565b60006020820190508181036000830152611bf6816116ac565b9050919050565b60006020820190508181036000830152611c1681611712565b9050919050565b60006020820190508181036000830152611c3681611778565b9050919050565b60006020820190508181036000830152611c56816117de565b9050919050565b60006020820190508181036000830152611c768161181e565b9050919050565b60006020820190508181036000830152611c968161185e565b9050919050565b60006020820190508181036000830152611cb6816118c4565b9050919050565b60006020820190508181036000830152611cd681611904565b9050919050565b60006020820190508181036000830152611cf68161196a565b9050919050565b60006020820190508181036000830152611d16816119d0565b9050919050565b60006020820190508181036000830152611d3681611a36565b9050919050565b60006020820190508181036000830152611d5681611a76565b9050919050565b60006020820190508181036000830152611d7681611adc565b9050919050565b60006020820190508181036000830152611d9681611b42565b9050919050565b6000602082019050611db26000830184611b82565b92915050565b6000602082019050611dcd6000830184611b91565b92915050565b600081519050919050565b600082825260208201905092915050565b6000611dfa826120b3565b9150611e05836120b3565b9250827fffffffffffffffffffffffffffffffffffffffffffffffffffffffffffffffff03821115611e3a57611e3961212f565b5b828201905092915050565b6000611e50826120b3565b9150611e5b836120b3565b925082611e6b57611e6a61215e565b5b828204905092915050565b6000808291508390505b6001851115611ec057808604811115611e9c57611e9b61212f565b5b6001851615611eab5780820291505b8081029050611eb9856121cd565b9450611e80565b94509492505050565b6000611ed4826120b3565b9150611edf836120b3565b9250611f0c7fffffffffffffffffffffffffffffffffffffffffffffffffffffffffffffffff8484611f14565b905092915050565b600082611f245760019050611fe0565b81611f325760009050611fe0565b8160018114611f485760028114611f5257611f81565b6001915050611fe0565b60ff841115611f6457611f6361212f565b5b8360020a915084821115611f7b57611f7a61212f565b5b50611fe0565b5060208310610133831016604e8410600b8410161715611fb65782820a905083811115611fb157611fb061212f565b5b611fe0565b611fc38484846001611e76565b92509050818404811115611fda57611fd961212f565b5b81810290505b9392505050565b6000611ff2826120b3565b9150611ffd836120b3565b9250817fffffffffffffffffffffffffffffffffffffffffffffffffffffffffffffffff04831182151516156120365761203561212f565b5b828202905092915050565b600061204c826120b3565b9150612057836120b3565b92508282101561206a5761206961212f565b5b828203905092915050565b600061208082612093565b9050919050565b60008115159050919050565b600073ffffffffffffffffffffffffffffffffffffffff82169050919050565b6000819050919050565b600060ff82169050919050565b60005b838110156120e85780820151818401526020810190506120cd565b838111156120f7576000848401525b50505050565b6000600282049050600182168061211557607f821691505b602082108114156121295761212861218d565b5b50919050565b7f4e487b7100000000000000000000000000000000000000000000000000000000600052601160045260246000fd5b7f4e487b7100000000000000000000000000000000000000000000000000000000600052601260045260246000fd5b7f4e487b7100000000000000000000000000000000000000000000000000000000600052602260045260246000fd5b6000601f19601f8301169050919050565b60008160011c9050919050565b6121e381612075565b81146121ee57600080fd5b50565b6121fa816120b3565b811461220557600080fd5b5056fea2646970667358221220b93c1e0d20b10352818a2c71e4165cf3357448313e72b98cea8e7516fa3bcdce64736f6c63430008000033",
  "immutableReferences": {},
  "source": "pragma solidity <=0.8.6;\n\nimport \"@openzeppelin/contracts/token/ERC20/ERC20.sol\";\n\ncontract KBD is ERC20 {\n    address private admin;\n\n    uint256 public exchangeRate = 5000;\n\n    address payable private pool =\n        payable(0x60bB6c1B4a0F5B1ea820be6c762384982b8a658c);\n\n    modifier onlyAdmin() {\n        require(msg.sender == admin, \"admin only\");\n        _;\n    }\n\n    constructor() ERC20(\"Sakon\", \"WIN\") {\n        _mint(msg.sender, 1000000 * (10**uint256(decimals())));\n        admin = msg.sender;\n    }\n\n    function fund() public payable {\n        require(msg.value > 0, \"can't fund with 0 amount\");\n    }\n\n    function burn(address account, uint256 amount) public onlyAdmin {\n        _burn(account, amount * (10**uint256(decimals())));\n    }\n\n    function mint(address account, uint256 amount) public onlyAdmin {\n        _mint(account, amount * (10**uint256(decimals())));\n    }\n\n    function this_balance() public view onlyAdmin returns (uint256) {\n        return address(this).balance;\n    }\n\n    function buy() external payable {\n        require(msg.value > 0, \"can't buy any with zero ETH\");\n        uint256 getAmount = msg.value * exchangeRate;\n\n        if (balanceOf(pool) > getAmount) {\n            _burn(pool, getAmount);\n            _mint(msg.sender, getAmount);\n        } else {\n            _mint(msg.sender, getAmount);\n            _mint(pool, getAmount);\n        }\n        updateExchangeRate();\n    }\n\n    function sell(uint256 amount) external {\n        require(balanceOf(msg.sender) >= amount, \"not enough balance to sell\");\n        uint256 getAmount = amount / (exchangeRate);\n        address payable recipient = payable(msg.sender);\n        if (address(this).balance < getAmount) {\n            revert();\n        }\n        recipient.transfer(getAmount);\n        transfer(payable(pool), amount);\n    }\n\n    function updateExchangeRate() private {\n        exchangeRate = exchangeRate + exchangeRate / 10;\n    }\n}\n",
  "sourcePath": "/Users/sakonthephamongkhol/Desktop/workspace/golang/src/github.com/kombangkoedias/tasks/truffle/contracts/KBD.sol",
  "compiler": {
    "name": "solc",
    "version": "0.8.0+commit.c7dfd78e.Emscripten.clang"
  },
  "schemaVersion": "3.4.1",
  "updatedAt": "2021-07-08T10:23:39.477Z",
  "devdoc": {
    "kind": "dev",
    "methods": {
      "allowance(address,address)": {
        "details": "See {IERC20-allowance}."
      },
      "approve(address,uint256)": {
        "details": "See {IERC20-approve}. Requirements: - `spender` cannot be the zero address."
      },
      "balanceOf(address)": {
        "details": "See {IERC20-balanceOf}."
      },
      "decimals()": {
        "details": "Returns the number of decimals used to get its user representation. For example, if `decimals` equals `2`, a balance of `505` tokens should be displayed to a user as `5,05` (`505 / 10 ** 2`). Tokens usually opt for a value of 18, imitating the relationship between Ether and Wei. This is the value {ERC20} uses, unless this function is overridden; NOTE: This information is only used for _display_ purposes: it in no way affects any of the arithmetic of the contract, including {IERC20-balanceOf} and {IERC20-transfer}."
      },
      "decreaseAllowance(address,uint256)": {
        "details": "Atomically decreases the allowance granted to `spender` by the caller. This is an alternative to {approve} that can be used as a mitigation for problems described in {IERC20-approve}. Emits an {Approval} event indicating the updated allowance. Requirements: - `spender` cannot be the zero address. - `spender` must have allowance for the caller of at least `subtractedValue`."
      },
      "increaseAllowance(address,uint256)": {
        "details": "Atomically increases the allowance granted to `spender` by the caller. This is an alternative to {approve} that can be used as a mitigation for problems described in {IERC20-approve}. Emits an {Approval} event indicating the updated allowance. Requirements: - `spender` cannot be the zero address."
      },
      "name()": {
        "details": "Returns the name of the token."
      },
      "symbol()": {
        "details": "Returns the symbol of the token, usually a shorter version of the name."
      },
      "totalSupply()": {
        "details": "See {IERC20-totalSupply}."
      },
      "transfer(address,uint256)": {
        "details": "See {IERC20-transfer}. Requirements: - `recipient` cannot be the zero address. - the caller must have a balance of at least `amount`."
      },
      "transferFrom(address,address,uint256)": {
        "details": "See {IERC20-transferFrom}. Emits an {Approval} event indicating the updated allowance. This is not required by the EIP. See the note at the beginning of {ERC20}. Requirements: - `sender` and `recipient` cannot be the zero address. - `sender` must have a balance of at least `amount`. - the caller must have allowance for ``sender``'s tokens of at least `amount`."
      }
    },
    "version": 1
  },
  "userdoc": {
    "kind": "user",
    "methods": {},
    "version": 1
  }
}