{
  "contractName": "StakePool",
  "abi": [
    {
      "inputs": [
        {
          "internalType": "address",
          "name": "",
          "type": "address"
        },
        {
          "internalType": "uint256",
          "name": "",
          "type": "uint256"
        }
      ],
      "name": "UserUnDelegateQueue",
      "outputs": [
        {
          "internalType": "uint256",
          "name": "amount",
          "type": "uint256"
        },
        {
          "internalType": "uint256",
          "name": "time",
          "type": "uint256"
        },
        {
          "internalType": "address",
          "name": "validator",
          "type": "address"
        }
      ],
      "stateMutability": "view",
      "type": "function",
      "constant": true
    },
    {
      "inputs": [
        {
          "internalType": "address",
          "name": "",
          "type": "address"
        }
      ],
      "name": "ValidatorDelegation",
      "outputs": [
        {
          "internalType": "uint256",
          "name": "totalDelegation",
          "type": "uint256"
        }
      ],
      "stateMutability": "view",
      "type": "function",
      "constant": true
    },
    {
      "inputs": [],
      "name": "alreadyInit",
      "outputs": [
        {
          "internalType": "bool",
          "name": "",
          "type": "bool"
        }
      ],
      "stateMutability": "view",
      "type": "function",
      "constant": true
    },
    {
      "inputs": [
        {
          "internalType": "address",
          "name": "validatorPoolAddress",
          "type": "address"
        }
      ],
      "name": "init",
      "outputs": [],
      "stateMutability": "nonpayable",
      "type": "function"
    },
    {
      "inputs": [
        {
          "internalType": "address",
          "name": "consensusAddress",
          "type": "address"
        }
      ],
      "name": "getDelegators",
      "outputs": [
        {
          "internalType": "address[]",
          "name": "",
          "type": "address[]"
        }
      ],
      "stateMutability": "view",
      "type": "function",
      "constant": true
    },
    {
      "inputs": [
        {
          "internalType": "address",
          "name": "consensusAddress",
          "type": "address"
        }
      ],
      "name": "getTotalDelegation",
      "outputs": [
        {
          "internalType": "uint256",
          "name": "",
          "type": "uint256"
        }
      ],
      "stateMutability": "view",
      "type": "function",
      "constant": true
    },
    {
      "inputs": [
        {
          "internalType": "address",
          "name": "consensusAddress",
          "type": "address"
        }
      ],
      "name": "getUserDelegationBondedAmount",
      "outputs": [
        {
          "internalType": "uint256",
          "name": "",
          "type": "uint256"
        }
      ],
      "stateMutability": "view",
      "type": "function",
      "constant": true
    },
    {
      "inputs": [
        {
          "internalType": "address",
          "name": "delegator",
          "type": "address"
        },
        {
          "internalType": "address",
          "name": "consensusAddress",
          "type": "address"
        }
      ],
      "name": "getUserDelegationBondedAmountCallable",
      "outputs": [
        {
          "internalType": "uint256",
          "name": "",
          "type": "uint256"
        }
      ],
      "stateMutability": "view",
      "type": "function",
      "constant": true
    },
    {
      "inputs": [
        {
          "internalType": "address",
          "name": "consensusAddress",
          "type": "address"
        }
      ],
      "name": "getUserDelegationUnbondingAmount",
      "outputs": [
        {
          "internalType": "uint256",
          "name": "",
          "type": "uint256"
        }
      ],
      "stateMutability": "view",
      "type": "function",
      "constant": true
    },
    {
      "inputs": [
        {
          "internalType": "address",
          "name": "delegator",
          "type": "address"
        },
        {
          "internalType": "address",
          "name": "consensusAddress",
          "type": "address"
        }
      ],
      "name": "getUserDelegationUnbondingAmountCallable",
      "outputs": [
        {
          "internalType": "uint256",
          "name": "",
          "type": "uint256"
        }
      ],
      "stateMutability": "view",
      "type": "function",
      "constant": true
    },
    {
      "inputs": [
        {
          "internalType": "address",
          "name": "consensusAddress",
          "type": "address"
        }
      ],
      "name": "getUserTotalDelegationAmount",
      "outputs": [
        {
          "internalType": "uint256",
          "name": "",
          "type": "uint256"
        }
      ],
      "stateMutability": "view",
      "type": "function",
      "constant": true
    },
    {
      "inputs": [
        {
          "internalType": "address",
          "name": "delegator",
          "type": "address"
        },
        {
          "internalType": "address",
          "name": "consensusAddress",
          "type": "address"
        }
      ],
      "name": "getUserTotalDelegationAmountCallable",
      "outputs": [
        {
          "internalType": "uint256",
          "name": "",
          "type": "uint256"
        }
      ],
      "stateMutability": "view",
      "type": "function",
      "constant": true
    },
    {
      "inputs": [
        {
          "internalType": "address",
          "name": "validatorConsensus",
          "type": "address"
        }
      ],
      "name": "delegate",
      "outputs": [],
      "stateMutability": "payable",
      "type": "function",
      "payable": true
    },
    {
      "inputs": [
        {
          "internalType": "address",
          "name": "validatorConsensus",
          "type": "address"
        },
        {
          "internalType": "uint256",
          "name": "amount",
          "type": "uint256"
        }
      ],
      "name": "undelegate",
      "outputs": [],
      "stateMutability": "nonpayable",
      "type": "function"
    },
    {
      "inputs": [],
      "name": "removeUnbondingUserFromUnbondingQueue",
      "outputs": [],
      "stateMutability": "nonpayable",
      "type": "function"
    }
  ],
  "bytecode": "0x60806040526201518060015534801561001757600080fd5b50612422806100276000396000f3fe6080604052600436106100e85760003560e01c80635c19a95c1161008a578063a78abc1611610059578063a78abc161461031f578063f9353fe01461034a578063fc5e7e0914610387578063ff9ea2f2146103c4576100e8565b80635c19a95c1461027257806368e763461461028e57806399e116ac146102cb5780639dbcd93914610308576100e8565b80631802f311116100c65780631802f311146101a657806319ab453c146101e3578063350441421461020c5780634d99dd1614610249576100e8565b80630717bdbb146100ed57806308ec40d01461012c5780630c4432d914610169575b600080fd5b3480156100f957600080fd5b50610114600480360381019061010f9190611d08565b610401565b60405161012393929190612050565b60405180910390f35b34801561013857600080fd5b50610153600480360381019061014e9190611c9b565b610468565b6040516101609190612035565b60405180910390f35b34801561017557600080fd5b50610190600480360381019061018b9190611c9b565b6104f1565b60405161019d9190612035565b60405180910390f35b3480156101b257600080fd5b506101cd60048036038101906101c89190611c9b565b61050f565b6040516101da9190612035565b60405180910390f35b3480156101ef57600080fd5b5061020a60048036038101906102059190611c9b565b610598565b005b34801561021857600080fd5b50610233600480360381019061022e9190611cc8565b610644565b6040516102409190612035565b60405180910390f35b34801561025557600080fd5b50610270600480360381019061026b9190611d08565b61066c565b005b61028c60048036038101906102879190611c9b565b610d1c565b005b34801561029a57600080fd5b506102b560048036038101906102b09190611c9b565b611541565b6040516102c29190611f58565b60405180910390f35b3480156102d757600080fd5b506102f260048036038101906102ed9190611cc8565b611611565b6040516102ff9190612035565b60405180910390f35b34801561031457600080fd5b5061031d61169b565b005b34801561032b57600080fd5b50610334611b11565b6040516103419190611f7a565b60405180910390f35b34801561035657600080fd5b50610371600480360381019061036c9190611cc8565b611b22565b60405161037e9190612035565b60405180910390f35b34801561039357600080fd5b506103ae60048036038101906103a99190611c9b565b611bac565b6040516103bb9190612035565b60405180910390f35b3480156103d057600080fd5b506103eb60048036038101906103e69190611c9b565b611bf8565b6040516103f89190612035565b60405180910390f35b6004602052816000526040600020818154811061041d57600080fd5b9060005260206000209060030201600091509150508060000154908060010154908060020160009054906101000a900473ffffffffffffffffffffffffffffffffffffffff16905083565b6000600360003373ffffffffffffffffffffffffffffffffffffffff1673ffffffffffffffffffffffffffffffffffffffff16815260200190815260200160002060010160008373ffffffffffffffffffffffffffffffffffffffff1673ffffffffffffffffffffffffffffffffffffffff168152602001908152602001600020549050919050565b60026020528060005260406000206000915090508060020154905081565b6000600360003373ffffffffffffffffffffffffffffffffffffffff1673ffffffffffffffffffffffffffffffffffffffff16815260200190815260200160002060020160008373ffffffffffffffffffffffffffffffffffffffff1673ffffffffffffffffffffffffffffffffffffffff168152602001908152602001600020549050919050565b60008054906101000a900460ff16156105e6576040517f08c379a00000000000000000000000000000000000000000000000000000000081526004016105dd90611fd5565b60405180910390fd5b80600560006101000a81548173ffffffffffffffffffffffffffffffffffffffff021916908373ffffffffffffffffffffffffffffffffffffffff16021790555060016000806101000a81548160ff02191690831515021790555050565b60006106508383611611565b61065a8484611b22565b61066491906120d1565b905092915050565b60008054906101000a900460ff166106b9576040517f08c379a00000000000000000000000000000000000000000000000000000000081526004016106b090611fb5565b60405180910390fd5b80600260008473ffffffffffffffffffffffffffffffffffffffff1673ffffffffffffffffffffffffffffffffffffffff16815260200190815260200160002060000160003373ffffffffffffffffffffffffffffffffffffffff1673ffffffffffffffffffffffffffffffffffffffff16815260200190815260200160002054101561077b576040517f08c379a000000000000000000000000000000000000000000000000000000000815260040161077290611ff5565b60405180910390fd5b60006001600560009054906101000a900473ffffffffffffffffffffffffffffffffffffffff1673ffffffffffffffffffffffffffffffffffffffff1663b6338917856040518263ffffffff1660e01b81526004016107da9190611f3d565b60206040518083038186803b1580156107f257600080fd5b505afa158015610806573d6000803e3d6000fd5b505050506040513d601f19601f8201168201806040525081019061082a9190611daf565b6108349190612127565b90506000600560009054906101000a900473ffffffffffffffffffffffffffffffffffffffff1673ffffffffffffffffffffffffffffffffffffffff166335aa2e44836040518263ffffffff1660e01b81526004016108939190612035565b60806040518083038186803b1580156108ab57600080fd5b505afa1580156108bf573d6000803e3d6000fd5b505050506040513d601f19601f820116820180604052508101906108e39190611d48565b5092505050600060028111156108fc576108fb61221b565b5b81600281111561090f5761090e61221b565b5b1415610b495782600360003373ffffffffffffffffffffffffffffffffffffffff1673ffffffffffffffffffffffffffffffffffffffff16815260200190815260200160002060010160008673ffffffffffffffffffffffffffffffffffffffff1673ffffffffffffffffffffffffffffffffffffffff16815260200190815260200160002060008282546109a49190612127565b9250508190555082600360003373ffffffffffffffffffffffffffffffffffffffff1673ffffffffffffffffffffffffffffffffffffffff16815260200190815260200160002060020160008673ffffffffffffffffffffffffffffffffffffffff1673ffffffffffffffffffffffffffffffffffffffff1681526020019081526020016000206000828254610a3a91906120d1565b92505081905550600460003373ffffffffffffffffffffffffffffffffffffffff1673ffffffffffffffffffffffffffffffffffffffff168152602001908152602001600020604051806060016040528085815260200160015442610a9f91906120d1565b81526020018673ffffffffffffffffffffffffffffffffffffffff168152509080600181540180825580915050600190039060005260206000209060030201600090919091909150600082015181600001556020820151816001015560408201518160020160006101000a81548173ffffffffffffffffffffffffffffffffffffffff021916908373ffffffffffffffffffffffffffffffffffffffff1602179055505050610d16565b82600260008673ffffffffffffffffffffffffffffffffffffffff1673ffffffffffffffffffffffffffffffffffffffff16815260200190815260200160002060000160003373ffffffffffffffffffffffffffffffffffffffff1673ffffffffffffffffffffffffffffffffffffffff1681526020019081526020016000206000828254610bd89190612127565b9250508190555082600260008673ffffffffffffffffffffffffffffffffffffffff1673ffffffffffffffffffffffffffffffffffffffff1681526020019081526020016000206002016000828254610c319190612127565b9250508190555082600360003373ffffffffffffffffffffffffffffffffffffffff1673ffffffffffffffffffffffffffffffffffffffff16815260200190815260200160002060010160008673ffffffffffffffffffffffffffffffffffffffff1673ffffffffffffffffffffffffffffffffffffffff1681526020019081526020016000206000828254610cc79190612127565b925050819055503373ffffffffffffffffffffffffffffffffffffffff166108fc849081150290604051600060405180830381858888f19350505050158015610d14573d6000803e3d6000fd5b505b50505050565b60008054906101000a900460ff16610d69576040517f08c379a0000000000000000000000000000000000000000000000000000000008152600401610d6090611fb5565b60405180910390fd5b6000600560009054906101000a900473ffffffffffffffffffffffffffffffffffffffff1673ffffffffffffffffffffffffffffffffffffffff1663b6338917836040518263ffffffff1660e01b8152600401610dc69190611f3d565b60206040518083038186803b158015610dde57600080fd5b505afa158015610df2573d6000803e3d6000fd5b505050506040513d601f19601f82011682018060405250810190610e169190611daf565b11610e56576040517f08c379a0000000000000000000000000000000000000000000000000000000008152600401610e4d90611f95565b60405180910390fd5b6000600560009054906101000a900473ffffffffffffffffffffffffffffffffffffffff1673ffffffffffffffffffffffffffffffffffffffff166335aa2e446001600560009054906101000a900473ffffffffffffffffffffffffffffffffffffffff1673ffffffffffffffffffffffffffffffffffffffff1663b6338917866040518263ffffffff1660e01b8152600401610ef39190611f3d565b60206040518083038186803b158015610f0b57600080fd5b505afa158015610f1f573d6000803e3d6000fd5b505050506040513d601f19601f82011682018060405250810190610f439190611daf565b610f4d9190612127565b6040518263ffffffff1660e01b8152600401610f699190612035565b60806040518083038186803b158015610f8157600080fd5b505afa158015610f95573d6000803e3d6000fd5b505050506040513d601f19601f82011682018060405250810190610fb99190611d48565b5092505050600280811115610fd157610fd061221b565b5b816002811115610fe457610fe361221b565b5b14611024576040517f08c379a000000000000000000000000000000000000000000000000000000000815260040161101b90612015565b60405180910390fd5b34600260008473ffffffffffffffffffffffffffffffffffffffff1673ffffffffffffffffffffffffffffffffffffffff16815260200190815260200160002060000160003373ffffffffffffffffffffffffffffffffffffffff1673ffffffffffffffffffffffffffffffffffffffff16815260200190815260200160002060008282546110b391906120d1565b9250508190555034600260008473ffffffffffffffffffffffffffffffffffffffff1673ffffffffffffffffffffffffffffffffffffffff168152602001908152602001600020600201600082825461110c91906120d1565b925050819055506000805b600260008573ffffffffffffffffffffffffffffffffffffffff1673ffffffffffffffffffffffffffffffffffffffff16815260200190815260200160002060010180549050811015611232573373ffffffffffffffffffffffffffffffffffffffff16600260008673ffffffffffffffffffffffffffffffffffffffff1673ffffffffffffffffffffffffffffffffffffffff16815260200190815260200160002060010182815481106111cf576111ce61224a565b5b9060005260206000200160009054906101000a900473ffffffffffffffffffffffffffffffffffffffff1673ffffffffffffffffffffffffffffffffffffffff16141561121f5760019150611232565b808061122a906121a3565b915050611117565b50806112dc57600260008473ffffffffffffffffffffffffffffffffffffffff1673ffffffffffffffffffffffffffffffffffffffff168152602001908152602001600020600101339080600181540180825580915050600190039060005260206000200160009091909190916101000a81548173ffffffffffffffffffffffffffffffffffffffff021916908373ffffffffffffffffffffffffffffffffffffffff1602179055505b34600360003373ffffffffffffffffffffffffffffffffffffffff1673ffffffffffffffffffffffffffffffffffffffff16815260200190815260200160002060010160008573ffffffffffffffffffffffffffffffffffffffff1673ffffffffffffffffffffffffffffffffffffffff168152602001908152602001600020600082825461136b91906120d1565b925050819055506000805b600360003373ffffffffffffffffffffffffffffffffffffffff1673ffffffffffffffffffffffffffffffffffffffff16815260200190815260200160002060000180549050811015611491578473ffffffffffffffffffffffffffffffffffffffff16600360003373ffffffffffffffffffffffffffffffffffffffff1673ffffffffffffffffffffffffffffffffffffffff168152602001908152602001600020600001828154811061142e5761142d61224a565b5b9060005260206000200160009054906101000a900473ffffffffffffffffffffffffffffffffffffffff1673ffffffffffffffffffffffffffffffffffffffff16141561147e5760019150611491565b8080611489906121a3565b915050611376565b508061153b57600360003373ffffffffffffffffffffffffffffffffffffffff1673ffffffffffffffffffffffffffffffffffffffff168152602001908152602001600020600001849080600181540180825580915050600190039060005260206000200160009091909190916101000a81548173ffffffffffffffffffffffffffffffffffffffff021916908373ffffffffffffffffffffffffffffffffffffffff1602179055505b50505050565b6060600260008373ffffffffffffffffffffffffffffffffffffffff1673ffffffffffffffffffffffffffffffffffffffff16815260200190815260200160002060010180548060200260200160405190810160405280929190818152602001828054801561160557602002820191906000526020600020905b8160009054906101000a900473ffffffffffffffffffffffffffffffffffffffff1673ffffffffffffffffffffffffffffffffffffffff16815260200190600101908083116115bb575b50505050509050919050565b6000600360008473ffffffffffffffffffffffffffffffffffffffff1673ffffffffffffffffffffffffffffffffffffffff16815260200190815260200160002060020160008373ffffffffffffffffffffffffffffffffffffffff1673ffffffffffffffffffffffffffffffffffffffff16815260200190815260200160002054905092915050565b60008054906101000a900460ff166116e8576040517f08c379a00000000000000000000000000000000000000000000000000000000081526004016116df90611fb5565b60405180910390fd5b60005b600460003373ffffffffffffffffffffffffffffffffffffffff1673ffffffffffffffffffffffffffffffffffffffff16815260200190815260200160002080549050811015611b0e576000600460003373ffffffffffffffffffffffffffffffffffffffff1673ffffffffffffffffffffffffffffffffffffffff16815260200190815260200160002082815481106117885761178761224a565b5b90600052602060002090600302016000015490506000600460003373ffffffffffffffffffffffffffffffffffffffff1673ffffffffffffffffffffffffffffffffffffffff16815260200190815260200160002083815481106117ef576117ee61224a565b5b90600052602060002090600302016001015490506000600460003373ffffffffffffffffffffffffffffffffffffffff1673ffffffffffffffffffffffffffffffffffffffff16815260200190815260200160002084815481106118565761185561224a565b5b906000526020600020906003020160020160009054906101000a900473ffffffffffffffffffffffffffffffffffffffff16905042821015611af857600460003373ffffffffffffffffffffffffffffffffffffffff1673ffffffffffffffffffffffffffffffffffffffff16815260200190815260200160002084815481106118e3576118e261224a565b5b906000526020600020906003020160008082016000905560018201600090556002820160006101000a81549073ffffffffffffffffffffffffffffffffffffffff021916905550503373ffffffffffffffffffffffffffffffffffffffff166108fc849081150290604051600060405180830381858888f19350505050158015611971573d6000803e3d6000fd5b5082600360003373ffffffffffffffffffffffffffffffffffffffff1673ffffffffffffffffffffffffffffffffffffffff16815260200190815260200160002060020160008373ffffffffffffffffffffffffffffffffffffffff1673ffffffffffffffffffffffffffffffffffffffff1681526020019081526020016000206000828254611a019190612127565b9250508190555082600260008373ffffffffffffffffffffffffffffffffffffffff1673ffffffffffffffffffffffffffffffffffffffff16815260200190815260200160002060000160003373ffffffffffffffffffffffffffffffffffffffff1673ffffffffffffffffffffffffffffffffffffffff1681526020019081526020016000206000828254611a979190612127565b9250508190555082600260008373ffffffffffffffffffffffffffffffffffffffff1673ffffffffffffffffffffffffffffffffffffffff1681526020019081526020016000206002016000828254611af09190612127565b925050819055505b5050508080611b06906121a3565b9150506116eb565b50565b60008054906101000a900460ff1681565b6000600360008473ffffffffffffffffffffffffffffffffffffffff1673ffffffffffffffffffffffffffffffffffffffff16815260200190815260200160002060010160008373ffffffffffffffffffffffffffffffffffffffff1673ffffffffffffffffffffffffffffffffffffffff16815260200190815260200160002054905092915050565b6000600260008373ffffffffffffffffffffffffffffffffffffffff1673ffffffffffffffffffffffffffffffffffffffff168152602001908152602001600020600201549050919050565b6000611c038261050f565b611c0c83610468565b611c1691906120d1565b9050919050565b600081359050611c2c81612397565b92915050565b600081519050611c4181612397565b92915050565b600081519050611c56816123ae565b92915050565b600081519050611c6b816123c5565b92915050565b600081359050611c80816123d5565b92915050565b600081519050611c95816123d5565b92915050565b600060208284031215611cb157611cb0612279565b5b6000611cbf84828501611c1d565b91505092915050565b60008060408385031215611cdf57611cde612279565b5b6000611ced85828601611c1d565b9250506020611cfe85828601611c1d565b9150509250929050565b60008060408385031215611d1f57611d1e612279565b5b6000611d2d85828601611c1d565b9250506020611d3e85828601611c71565b9150509250929050565b60008060008060808587031215611d6257611d61612279565b5b6000611d7087828801611c32565b9450506020611d8187828801611c86565b9350506040611d9287828801611c5c565b9250506060611da387828801611c47565b91505092959194509250565b600060208284031215611dc557611dc4612279565b5b6000611dd384828501611c86565b91505092915050565b6000611de88383611df4565b60208301905092915050565b611dfd8161215b565b82525050565b611e0c8161215b565b82525050565b6000611e1d82612097565b611e2781856120af565b9350611e3283612087565b8060005b83811015611e63578151611e4a8882611ddc565b9750611e55836120a2565b925050600181019050611e36565b5085935050505092915050565b611e798161216d565b82525050565b6000611e8c6021836120c0565b9150611e978261227e565b604082019050919050565b6000611eaf6019836120c0565b9150611eba826122cd565b602082019050919050565b6000611ed26019836120c0565b9150611edd826122f6565b602082019050919050565b6000611ef5601b836120c0565b9150611f008261231f565b602082019050919050565b6000611f186040836120c0565b9150611f2382612348565b604082019050919050565b611f3781612199565b82525050565b6000602082019050611f526000830184611e03565b92915050565b60006020820190508181036000830152611f728184611e12565b905092915050565b6000602082019050611f8f6000830184611e70565b92915050565b60006020820190508181036000830152611fae81611e7f565b9050919050565b60006020820190508181036000830152611fce81611ea2565b9050919050565b60006020820190508181036000830152611fee81611ec5565b9050919050565b6000602082019050818103600083015261200e81611ee8565b9050919050565b6000602082019050818103600083015261202e81611f0b565b9050919050565b600060208201905061204a6000830184611f2e565b92915050565b60006060820190506120656000830186611f2e565b6120726020830185611f2e565b61207f6040830184611e03565b949350505050565b6000819050602082019050919050565b600081519050919050565b6000602082019050919050565b600082825260208201905092915050565b600082825260208201905092915050565b60006120dc82612199565b91506120e783612199565b9250827fffffffffffffffffffffffffffffffffffffffffffffffffffffffffffffffff0382111561211c5761211b6121ec565b5b828201905092915050565b600061213282612199565b915061213d83612199565b9250828210156121505761214f6121ec565b5b828203905092915050565b600061216682612179565b9050919050565b60008115159050919050565b600073ffffffffffffffffffffffffffffffffffffffff82169050919050565b6000819050919050565b60006121ae82612199565b91507fffffffffffffffffffffffffffffffffffffffffffffffffffffffffffffffff8214156121e1576121e06121ec565b5b600182019050919050565b7f4e487b7100000000000000000000000000000000000000000000000000000000600052601160045260246000fd5b7f4e487b7100000000000000000000000000000000000000000000000000000000600052602160045260246000fd5b7f4e487b7100000000000000000000000000000000000000000000000000000000600052603260045260246000fd5b600080fd5b7f63616e27742064656c656761746520746f2061206e6f6e2d76616c696461746f60008201527f7200000000000000000000000000000000000000000000000000000000000000602082015250565b7f74686520636f6e7472616374206e6f7420696e69742079657400000000000000600082015250565b7f74686520636f6e747261637420616c726561647920696e697400000000000000600082015250565b7f6e6f7420656e6f75676820616d6f756e7420746f20756e626f6e640000000000600082015250565b7f63616e27742064656c656761746520746f20616e20626f6e64696e672064656c60008201527f656761746f72206f7220616e20756e626f6e64696e672064656c656761746f72602082015250565b6123a08161215b565b81146123ab57600080fd5b50565b6123b78161216d565b81146123c257600080fd5b50565b600381106123d257600080fd5b50565b6123de81612199565b81146123e957600080fd5b5056fea26469706673582212205d1e6a7929591e7aa059262702198b2fc4b9b827d8a7ab6bcd3620ca0c2d8ec664736f6c63430008060033",
  "immutableReferences": {},
  "source": "pragma solidity <=0.8.6;\n\nimport \"./System.sol\";\nimport \"./ValidatorPool.sol\";\nimport \"./Interface/IValidator.sol\";\nimport \"./Interface/IDelegation.sol\";\n\ncontract StakePool is System, IValidator, IDelegation {\n    mapping(address => DelegationObject) public ValidatorDelegation;\n    mapping(address => userDelegation) internal UserDelegation;\n\n    mapping(address => UnBondingQueueStruct[]) public UserUnDelegateQueue;\n\n    ValidatorPool vldpool;\n\n    struct UnBondingQueueStruct {\n        uint256 amount;\n        uint256 time;\n        address validator;\n    }\n\n    function init(address validatorPoolAddress) external onlyNotInit {\n        vldpool = ValidatorPool(validatorPoolAddress);\n        alreadyInit = true;\n    }\n\n    function getDelegators(address consensusAddress)\n        external\n        view\n        returns (address[] memory)\n    {\n        return ValidatorDelegation[consensusAddress].delegators;\n    }\n\n    function getTotalDelegation(address consensusAddress)\n        public\n        view\n        returns (uint256)\n    {\n        return ValidatorDelegation[consensusAddress].totalDelegation;\n    }\n\n    function getUserDelegationBondedAmount(address consensusAddress)\n        public\n        view\n        returns (uint256)\n    {\n        return UserDelegation[msg.sender].bondedAmountForEach[consensusAddress];\n    }\n\n    function getUserDelegationBondedAmountCallable(\n        address delegator,\n        address consensusAddress\n    ) public view returns (uint256) {\n        return UserDelegation[delegator].bondedAmountForEach[consensusAddress];\n    }\n\n    function getUserDelegationUnbondingAmount(address consensusAddress)\n        public\n        view\n        returns (uint256)\n    {\n        return\n            UserDelegation[msg.sender].unbondingAmountForEach[consensusAddress];\n    }\n\n    function getUserDelegationUnbondingAmountCallable(\n        address delegator,\n        address consensusAddress\n    ) public view returns (uint256) {\n        return\n            UserDelegation[delegator].unbondingAmountForEach[consensusAddress];\n    }\n\n    function getUserTotalDelegationAmount(address consensusAddress)\n        external\n        view\n        returns (uint256)\n    {\n        return\n            getUserDelegationBondedAmount(consensusAddress) +\n            getUserDelegationUnbondingAmount(consensusAddress);\n    }\n\n    function getUserTotalDelegationAmountCallable(\n        address delegator,\n        address consensusAddress\n    ) external view returns (uint256) {\n        return\n            getUserDelegationBondedAmountCallable(delegator, consensusAddress) +\n            getUserDelegationUnbondingAmountCallable(\n                delegator,\n                consensusAddress\n            );\n    }\n\n    function delegate(address validatorConsensus) external payable onlyInit {\n        require(\n            vldpool.validatorsMap(validatorConsensus) > 0,\n            \"can't delegate to a non-validator\"\n        );\n        (, , BondStatus b, ) = vldpool.validators(\n            vldpool.validatorsMap(validatorConsensus) - 1\n        );\n        require(\n            b == BondStatus.UNBONDED,\n            \"can't delegate to an bonding delegator or an unbonding delegator\"\n        );\n        // update the ValidatorDelegation object in delegateAmountOfEach, totalDelegation, and delegators array\n        ValidatorDelegation[validatorConsensus].delegateAmountOfEach[\n            msg.sender\n        ] += msg.value;\n        ValidatorDelegation[validatorConsensus].totalDelegation += msg.value;\n        bool found_delegator = false;\n        for (\n            uint256 i = 0;\n            i < ValidatorDelegation[validatorConsensus].delegators.length;\n            i++\n        ) {\n            if (\n                ValidatorDelegation[validatorConsensus].delegators[i] ==\n                msg.sender\n            ) {\n                found_delegator = true;\n                break;\n            }\n        }\n        if (!found_delegator) {\n            ValidatorDelegation[validatorConsensus].delegators.push(msg.sender);\n        }\n        //vldpool.rePositionValidator(validatorConsensus, true); // the same as validator top up\n        // update the UserDelegation object in bondedAmountForEach, and validators array\n        UserDelegation[msg.sender].bondedAmountForEach[\n            validatorConsensus\n        ] += msg.value;\n        bool found = false;\n        for (\n            uint256 i = 0;\n            i < UserDelegation[msg.sender].validators.length;\n            i++\n        ) {\n            if (\n                UserDelegation[msg.sender].validators[i] == validatorConsensus\n            ) {\n                found = true;\n                break;\n            }\n        }\n        if (!found) {\n            UserDelegation[msg.sender].validators.push(validatorConsensus);\n        }\n    }\n\n    function undelegate(address validatorConsensus, uint256 amount)\n        external\n        onlyInit\n    {\n        require(\n            ValidatorDelegation[validatorConsensus].delegateAmountOfEach[\n                msg.sender\n            ] >= amount,\n            \"not enough amount to unbond\"\n        );\n\n        uint256 index = vldpool.validatorsMap(validatorConsensus) - 1;\n        (, , BondStatus bond, ) = vldpool.validators(index);\n        if (bond == BondStatus.BONDED) {\n            // if bond then all the delegation should be in bondedAmountForEach of the validator so unbond it.\n            //ValidatorDelegation[validatorConsensus].delegateAmountOfEach[msg.sender] -= amount;\n            UserDelegation[msg.sender].bondedAmountForEach[\n                validatorConsensus\n            ] -= amount;\n            UserDelegation[msg.sender].unbondingAmountForEach[\n                validatorConsensus\n            ] += amount;\n            UserUnDelegateQueue[msg.sender].push(\n                UnBondingQueueStruct(\n                    amount,\n                    block.timestamp + unbondingPeriod,\n                    validatorConsensus\n                )\n            );\n        } else {\n            // if not bond then transfer the amount (when not bond all the delegation for this validator should be in unbondedAmountForEach of the validator)\n            ValidatorDelegation[validatorConsensus].delegateAmountOfEach[\n                msg.sender\n            ] -= amount;\n            ValidatorDelegation[validatorConsensus].totalDelegation -= amount;\n            //vldpool.rePositionValidator(validatorConsensus, false); // the same as validator withdraw\n            UserDelegation[msg.sender].bondedAmountForEach[\n                validatorConsensus\n            ] -= amount;\n            payable(msg.sender).transfer(amount);\n        }\n    }\n\n    function removeUnbondingUserFromUnbondingQueue() external onlyInit {\n        // remove does not mean come to unbondedAmountForEach, it transfers out.\n        for (uint256 i = 0; i < UserUnDelegateQueue[msg.sender].length; i++) {\n            uint256 amount = UserUnDelegateQueue[msg.sender][i].amount;\n            uint256 time = UserUnDelegateQueue[msg.sender][i].time;\n            address validator = UserUnDelegateQueue[msg.sender][i].validator;\n            if (time < block.timestamp) {\n                // unbonding finishes for this undelegation.\n                delete UserUnDelegateQueue[msg.sender][i];\n                payable(msg.sender).transfer(amount);\n                UserDelegation[msg.sender].unbondingAmountForEach[\n                    validator\n                ] -= amount;\n                // the delegation for the validator is deducted when the unbonding is finished and user remove it from queue\n                ValidatorDelegation[validator].delegateAmountOfEach[\n                    msg.sender\n                ] -= amount;\n                ValidatorDelegation[validator].totalDelegation -= amount;\n                //vldpool.rePositionValidator(validator, false); // the same as validator withdraw\n            }\n        }\n    }\n}\n",
  "sourcePath": "/Users/sakonthephamongkhol/Downloads/Intern/BKC-PoSA/truffle/contracts/StakePool.sol",
  "compiler": {
    "name": "solc",
    "version": "0.8.6+commit.11564f7e.Emscripten.clang"
  },
  "schemaVersion": "3.4.1",
  "updatedAt": "2021-06-29T11:03:19.695Z",
  "networkType": "ethereum",
  "devdoc": {
    "kind": "dev",
    "methods": {},
    "version": 1
  },
  "userdoc": {
    "kind": "user",
    "methods": {},
    "version": 1
  }
}