{
  "contractName": "SystemReward",
  "abi": [
    {
      "inputs": [],
      "name": "alreadyInit",
      "outputs": [
        {
          "internalType": "bool",
          "name": "",
          "type": "bool"
        }
      ],
      "stateMutability": "view",
      "type": "function",
      "constant": true
    },
    {
      "inputs": [
        {
          "internalType": "address",
          "name": "",
          "type": "address"
        }
      ],
      "name": "rewardMapping",
      "outputs": [
        {
          "internalType": "uint256",
          "name": "",
          "type": "uint256"
        }
      ],
      "stateMutability": "view",
      "type": "function",
      "constant": true
    },
    {
      "inputs": [
        {
          "internalType": "address",
          "name": "BKCValidatorSetAddress",
          "type": "address"
        },
        {
          "internalType": "address",
          "name": "StakePoolAddress",
          "type": "address"
        }
      ],
      "name": "init",
      "outputs": [],
      "stateMutability": "nonpayable",
      "type": "function"
    },
    {
      "inputs": [],
      "name": "getBalance",
      "outputs": [
        {
          "internalType": "uint256",
          "name": "",
          "type": "uint256"
        }
      ],
      "stateMutability": "view",
      "type": "function",
      "constant": true
    },
    {
      "inputs": [],
      "name": "fund",
      "outputs": [],
      "stateMutability": "payable",
      "type": "function",
      "payable": true
    },
    {
      "inputs": [
        {
          "internalType": "address",
          "name": "consensusAddress",
          "type": "address"
        }
      ],
      "name": "addReward",
      "outputs": [],
      "stateMutability": "payable",
      "type": "function",
      "payable": true
    },
    {
      "inputs": [],
      "name": "distributeReward",
      "outputs": [],
      "stateMutability": "nonpayable",
      "type": "function"
    },
    {
      "inputs": [
        {
          "internalType": "address",
          "name": "consensusAddress",
          "type": "address"
        }
      ],
      "name": "getTotalPower",
      "outputs": [
        {
          "internalType": "uint256",
          "name": "",
          "type": "uint256"
        }
      ],
      "stateMutability": "view",
      "type": "function",
      "constant": true
    }
  ],
  "bytecode": "0x60806040526201518060015534801561001757600080fd5b50611b02806100276000396000f3fe60806040526004361061007b5760003560e01c8063a78abc161161004e578063a78abc161461011b578063b60d428814610146578063d7dc81cd14610150578063f09a40161461018d5761007b565b806312065fe014610080578063571a9154146100ab5780638f73c5ae146100e85780639c9b2e21146100ff575b600080fd5b34801561008c57600080fd5b506100956101b6565b6040516100a29190611603565b60405180910390f35b3480156100b757600080fd5b506100d260048036038101906100cd91906112de565b61020c565b6040516100df9190611603565b60405180910390f35b3480156100f457600080fd5b506100fd610224565b005b610119600480360381019061011491906112de565b61067e565b005b34801561012757600080fd5b5061013061086f565b60405161013d9190611548565b60405180910390f35b61014e610880565b005b34801561015c57600080fd5b50610177600480360381019061017291906112de565b6108cf565b6040516101849190611603565b60405180910390f35b34801561019957600080fd5b506101b460048036038101906101af919061130b565b610b02565b005b60008060009054906101000a900460ff16610206576040517f08c379a00000000000000000000000000000000000000000000000000000000081526004016101fd90611563565b60405180910390fd5b47905090565b60026020528060005260406000206000915090505481565b60008054906101000a900460ff16610271576040517f08c379a000000000000000000000000000000000000000000000000000000000815260040161026890611563565b60405180910390fd5b6000805b600560009054906101000a900473ffffffffffffffffffffffffffffffffffffffff1673ffffffffffffffffffffffffffffffffffffffff166374de16696040518163ffffffff1660e01b815260040160206040518083038186803b1580156102dd57600080fd5b505afa1580156102f1573d6000803e3d6000fd5b505050506040513d601f19601f8201168201806040525081019061031591906113fb565b81101561042f576000600560009054906101000a900473ffffffffffffffffffffffffffffffffffffffff1673ffffffffffffffffffffffffffffffffffffffff16636969a25c836040518263ffffffff1660e01b81526004016103799190611603565b60806040518083038186803b15801561039157600080fd5b505afa1580156103a5573d6000803e3d6000fd5b505050506040513d601f19601f820116820180604052508101906103c9919061134b565b5050509050600260008273ffffffffffffffffffffffffffffffffffffffff1673ffffffffffffffffffffffffffffffffffffffff16815260200190815260200160002054836104199190611680565b92505080806104279061180e565b915050610275565b5080471015610473576040517f08c379a000000000000000000000000000000000000000000000000000000000815260040161046a906115c3565b60405180910390fd5b60005b600560009054906101000a900473ffffffffffffffffffffffffffffffffffffffff1673ffffffffffffffffffffffffffffffffffffffff166374de16696040518163ffffffff1660e01b815260040160206040518083038186803b1580156104de57600080fd5b505afa1580156104f2573d6000803e3d6000fd5b505050506040513d601f19601f8201168201806040525081019061051691906113fb565b81101561067a576000600560009054906101000a900473ffffffffffffffffffffffffffffffffffffffff1673ffffffffffffffffffffffffffffffffffffffff16636969a25c836040518263ffffffff1660e01b815260040161057a9190611603565b60806040518083038186803b15801561059257600080fd5b505afa1580156105a6573d6000803e3d6000fd5b505050506040513d601f19601f820116820180604052508101906105ca919061134b565b50505090506000600260008373ffffffffffffffffffffffffffffffffffffffff1673ffffffffffffffffffffffffffffffffffffffff1681526020019081526020016000205411156106665761062081610c72565b6000600260008373ffffffffffffffffffffffffffffffffffffffff1673ffffffffffffffffffffffffffffffffffffffff168152602001908152602001600020819055505b5080806106729061180e565b915050610476565b5050565b60008054906101000a900460ff166106cb576040517f08c379a00000000000000000000000000000000000000000000000000000000081526004016106c290611563565b60405180910390fd5b6000600560009054906101000a900473ffffffffffffffffffffffffffffffffffffffff1673ffffffffffffffffffffffffffffffffffffffff1663ad3c9da6836040518263ffffffff1660e01b81526004016107289190611504565b60206040518083038186803b15801561074057600080fd5b505afa158015610754573d6000803e3d6000fd5b505050506040513d601f19601f8201168201806040525081019061077891906113fb565b116107b8576040517f08c379a00000000000000000000000000000000000000000000000000000000081526004016107af90611583565b60405180910390fd5b600034116107fb576040517f08c379a00000000000000000000000000000000000000000000000000000000081526004016107f2906115e3565b60405180910390fd5b6064605a60ff163461080d9190611707565b61081791906116d6565b600260008373ffffffffffffffffffffffffffffffffffffffff1673ffffffffffffffffffffffffffffffffffffffff16815260200190815260200160002060008282546108659190611680565b9250508190555050565b60008054906101000a900460ff1681565b60008054906101000a900460ff166108cd576040517f08c379a00000000000000000000000000000000000000000000000000000000081526004016108c490611563565b60405180910390fd5b565b600080600560009054906101000a900473ffffffffffffffffffffffffffffffffffffffff1673ffffffffffffffffffffffffffffffffffffffff16636969a25c6001600560009054906101000a900473ffffffffffffffffffffffffffffffffffffffff1673ffffffffffffffffffffffffffffffffffffffff1663ad3c9da6876040518263ffffffff1660e01b815260040161096d9190611504565b60206040518083038186803b15801561098557600080fd5b505afa158015610999573d6000803e3d6000fd5b505050506040513d601f19601f820116820180604052508101906109bd91906113fb565b6109c79190611761565b6040518263ffffffff1660e01b81526004016109e39190611603565b60806040518083038186803b1580156109fb57600080fd5b505afa158015610a0f573d6000803e3d6000fd5b505050506040513d601f19601f82011682018060405250810190610a33919061134b565b50509150506000600660009054906101000a900473ffffffffffffffffffffffffffffffffffffffff1673ffffffffffffffffffffffffffffffffffffffff1663fc5e7e09856040518263ffffffff1660e01b8152600401610a959190611504565b60206040518083038186803b158015610aad57600080fd5b505afa158015610ac1573d6000803e3d6000fd5b505050506040513d601f19601f82011682018060405250810190610ae591906113fb565b905060008183610af59190611680565b9050809350505050919050565b60008054906101000a900460ff1615610b50576040517f08c379a0000000000000000000000000000000000000000000000000000000008152600401610b47906115a3565b60405180910390fd5b81600360006101000a81548173ffffffffffffffffffffffffffffffffffffffff021916908373ffffffffffffffffffffffffffffffffffffffff16021790555080600460006101000a81548173ffffffffffffffffffffffffffffffffffffffff021916908373ffffffffffffffffffffffffffffffffffffffff16021790555081600560006101000a81548173ffffffffffffffffffffffffffffffffffffffff021916908373ffffffffffffffffffffffffffffffffffffffff16021790555080600660006101000a81548173ffffffffffffffffffffffffffffffffffffffff021916908373ffffffffffffffffffffffffffffffffffffffff16021790555060016000806101000a81548160ff0219169083151502179055505050565b60008054906101000a900460ff16610cbf576040517f08c379a0000000000000000000000000000000000000000000000000000000008152600401610cb690611563565b60405180910390fd5b6000600560009054906101000a900473ffffffffffffffffffffffffffffffffffffffff1673ffffffffffffffffffffffffffffffffffffffff16636969a25c6001600560009054906101000a900473ffffffffffffffffffffffffffffffffffffffff1673ffffffffffffffffffffffffffffffffffffffff1663ad3c9da6866040518263ffffffff1660e01b8152600401610d5c9190611504565b60206040518083038186803b158015610d7457600080fd5b505afa158015610d88573d6000803e3d6000fd5b505050506040513d601f19601f82011682018060405250810190610dac91906113fb565b610db69190611761565b6040518263ffffffff1660e01b8152600401610dd29190611603565b60806040518083038186803b158015610dea57600080fd5b505afa158015610dfe573d6000803e3d6000fd5b505050506040513d601f19601f82011682018060405250810190610e22919061134b565b50509150506000600660009054906101000a900473ffffffffffffffffffffffffffffffffffffffff1673ffffffffffffffffffffffffffffffffffffffff1663fc5e7e09846040518263ffffffff1660e01b8152600401610e849190611504565b60206040518083038186803b158015610e9c57600080fd5b505afa158015610eb0573d6000803e3d6000fd5b505050506040513d601f19601f82011682018060405250810190610ed491906113fb565b905060008183610ee49190611680565b9050600081600260008773ffffffffffffffffffffffffffffffffffffffff1673ffffffffffffffffffffffffffffffffffffffff1681526020019081526020016000205485610f349190611707565b610f3e91906116d6565b90508473ffffffffffffffffffffffffffffffffffffffff166108fc829081150290604051600060405180830381858888f19350505050158015610f86573d6000803e3d6000fd5b506000600660009054906101000a900473ffffffffffffffffffffffffffffffffffffffff1673ffffffffffffffffffffffffffffffffffffffff166368e76346876040518263ffffffff1660e01b8152600401610fe49190611504565b60006040518083038186803b158015610ffc57600080fd5b505afa158015611010573d6000803e3d6000fd5b505050506040513d6000823e3d601f19601f8201168201806040525081019061103991906113b2565b905060005b81518110156111ce57600082828151811061105c5761105b6118b5565b5b602002602001015190506000600660009054906101000a900473ffffffffffffffffffffffffffffffffffffffff1673ffffffffffffffffffffffffffffffffffffffff166335044142838b6040518363ffffffff1660e01b81526004016110c592919061151f565b60206040518083038186803b1580156110dd57600080fd5b505afa1580156110f1573d6000803e3d6000fd5b505050506040513d601f19601f8201168201806040525081019061111591906113fb565b9050600086600260008c73ffffffffffffffffffffffffffffffffffffffff1673ffffffffffffffffffffffffffffffffffffffff16815260200190815260200160002054836111659190611707565b61116f91906116d6565b90508273ffffffffffffffffffffffffffffffffffffffff166108fc829081150290604051600060405180830381858888f193505050501580156111b7573d6000803e3d6000fd5b5050505080806111c69061180e565b91505061103e565b50505050505050565b60006111ea6111e584611643565b61161e565b9050808382526020820190508285602086028201111561120d5761120c611918565b5b60005b8581101561123d5781611223888261125c565b845260208401935060208301925050600181019050611210565b5050509392505050565b60008135905061125681611a77565b92915050565b60008151905061126b81611a77565b92915050565b600082601f83011261128657611285611913565b5b81516112968482602086016111d7565b91505092915050565b6000815190506112ae81611a8e565b92915050565b6000815190506112c381611aa5565b92915050565b6000815190506112d881611ab5565b92915050565b6000602082840312156112f4576112f3611922565b5b600061130284828501611247565b91505092915050565b6000806040838503121561132257611321611922565b5b600061133085828601611247565b925050602061134185828601611247565b9150509250929050565b6000806000806080858703121561136557611364611922565b5b60006113738782880161125c565b9450506020611384878288016112c9565b9350506040611395878288016112b4565b92505060606113a68782880161129f565b91505092959194509250565b6000602082840312156113c8576113c7611922565b5b600082015167ffffffffffffffff8111156113e6576113e561191d565b5b6113f284828501611271565b91505092915050565b60006020828403121561141157611410611922565b5b600061141f848285016112c9565b91505092915050565b61143181611795565b82525050565b611440816117a7565b82525050565b600061145360198361166f565b915061145e82611938565b602082019050919050565b6000611476602a8361166f565b915061148182611961565b604082019050919050565b600061149960198361166f565b91506114a4826119b0565b602082019050919050565b60006114bc604b8361166f565b91506114c7826119d9565b606082019050919050565b60006114df601d8361166f565b91506114ea82611a4e565b602082019050919050565b6114fe816117d3565b82525050565b60006020820190506115196000830184611428565b92915050565b60006040820190506115346000830185611428565b6115416020830184611428565b9392505050565b600060208201905061155d6000830184611437565b92915050565b6000602082019050818103600083015261157c81611446565b9050919050565b6000602082019050818103600083015261159c81611469565b9050919050565b600060208201905081810360008301526115bc8161148c565b9050919050565b600060208201905081810360008301526115dc816114af565b9050919050565b600060208201905081810360008301526115fc816114d2565b9050919050565b600060208201905061161860008301846114f5565b92915050565b6000611628611639565b905061163482826117dd565b919050565b6000604051905090565b600067ffffffffffffffff82111561165e5761165d6118e4565b5b602082029050602081019050919050565b600082825260208201905092915050565b600061168b826117d3565b9150611696836117d3565b9250827fffffffffffffffffffffffffffffffffffffffffffffffffffffffffffffffff038211156116cb576116ca611857565b5b828201905092915050565b60006116e1826117d3565b91506116ec836117d3565b9250826116fc576116fb611886565b5b828204905092915050565b6000611712826117d3565b915061171d836117d3565b9250817fffffffffffffffffffffffffffffffffffffffffffffffffffffffffffffffff048311821515161561175657611755611857565b5b828202905092915050565b600061176c826117d3565b9150611777836117d3565b92508282101561178a57611789611857565b5b828203905092915050565b60006117a0826117b3565b9050919050565b60008115159050919050565b600073ffffffffffffffffffffffffffffffffffffffff82169050919050565b6000819050919050565b6117e682611927565b810181811067ffffffffffffffff82111715611805576118046118e4565b5b80604052505050565b6000611819826117d3565b91507fffffffffffffffffffffffffffffffffffffffffffffffffffffffffffffffff82141561184c5761184b611857565b5b600182019050919050565b7f4e487b7100000000000000000000000000000000000000000000000000000000600052601160045260246000fd5b7f4e487b7100000000000000000000000000000000000000000000000000000000600052601260045260246000fd5b7f4e487b7100000000000000000000000000000000000000000000000000000000600052603260045260246000fd5b7f4e487b7100000000000000000000000000000000000000000000000000000000600052604160045260246000fd5b600080fd5b600080fd5b600080fd5b600080fd5b6000601f19601f8301169050919050565b7f74686520636f6e7472616374206e6f7420696e69742079657400000000000000600082015250565b7f63616e2774206164642072657761726420746f2061206e6f6e2d61637469766560008201527f2076616c696461746f7200000000000000000000000000000000000000000000602082015250565b7f74686520636f6e747261637420616c726561647920696e697400000000000000600082015250565b7f63616e27742064697374726962757465207265776172642c206e6f7420656e6f60008201527f7567682066756e6420696e20746865206163636f756e742c20666f7220736f6d60208201527f6520726561736f6e2e2e2e000000000000000000000000000000000000000000604082015250565b7f63616e27742061646420726577617264207769746820302076616c7565000000600082015250565b611a8081611795565b8114611a8b57600080fd5b50565b611a97816117a7565b8114611aa257600080fd5b50565b60038110611ab257600080fd5b50565b611abe816117d3565b8114611ac957600080fd5b5056fea26469706673582212206ea2a5df571a31aa73c68829c5d0768d6d3eb2bc2e8cbc67a0e187404eac451464736f6c63430008060033",
  "immutableReferences": {},
  "source": "pragma solidity <=0.8.6;\n\nimport \"./System.sol\";\nimport \"./Interface/IValidator.sol\";\nimport \"./Interface/IDelegation.sol\";\nimport \"./BKCValidatorSet.sol\";\nimport \"./StakePool.sol\";\n\ncontract SystemReward is System, IValidator, IDelegation {\n    mapping(address => uint256) public rewardMapping; // the mapping for reward of each validator.\n\n    address private _BKCValidatorSetAddress;\n    address private _StakePoolAddress;\n\n    uint8 constant PERCENTAGE_OF_REWARD_KEPT_FOR_MAINTENANCE = 90;\n\n    BKCValidatorSet private validatorset;\n    StakePool private stakepool;\n\n    modifier onlyBKCValidatorSetContract {\n        require(\n            msg.sender == _BKCValidatorSetAddress,\n            \"can only be called from the validator set contract\"\n        );\n        _;\n    }\n\n    function init(address BKCValidatorSetAddress, address StakePoolAddress)\n        external\n        onlyNotInit\n    {\n        _BKCValidatorSetAddress = BKCValidatorSetAddress;\n        _StakePoolAddress = StakePoolAddress;\n        validatorset = BKCValidatorSet(BKCValidatorSetAddress);\n        stakepool = StakePool(StakePoolAddress);\n        // initialize for testing (need to be funded 3 ether)\n        // rewardMapping[0x17F6AD8Ef982297579C203069C1DbfFE4348c372] =\n        //     3 *\n        //     (10**18);\n        alreadyInit = true;\n    }\n\n    function getBalance() external view onlyInit returns (uint256) {\n        return address(this).balance;\n    }\n\n    function fund() external payable onlyInit {\n        // TODO : funding algo here\n    }\n\n    function addReward(address consensusAddress) external payable onlyInit {\n        require(\n            validatorset.currentValidatorSetMap(consensusAddress) > 0,\n            \"can't add reward to a non-active validator\"\n        );\n        require(msg.value > 0, \"can't add reward with 0 value\");\n        rewardMapping[consensusAddress] +=\n            (msg.value * PERCENTAGE_OF_REWARD_KEPT_FOR_MAINTENANCE) /\n            100; // the reward is kept at 10% for system maintenance.\n    }\n\n    function distributeReward()\n        external\n        onlyInit\n    /*onlyBKCValidatorSetContract*/\n    {\n        uint256 totalRewardToBeDistributed = 0;\n\n        for (uint256 i = 0; i < validatorset.number_of_validators(); i++) {\n            (address a, , , ) = validatorset.currentValidatorSet(i);\n            totalRewardToBeDistributed += rewardMapping[a];\n        }\n\n        require(\n            address(this).balance >= totalRewardToBeDistributed,\n            \"can't distribute reward, not enough fund in the account, for some reason...\"\n        );\n\n        for (uint256 i = 0; i < validatorset.number_of_validators(); i++) {\n            (address a, , , ) = validatorset.currentValidatorSet(i);\n            if (rewardMapping[a] > 0) {\n                calculateAndTransferReward(a); // calculate and transfer reward for validator address a and its delegators.\n                rewardMapping[a] = 0; // set the reward back to 0\n            }\n        }\n    }\n\n    function getTotalPower(address consensusAddress)\n        external\n        view\n        returns (uint256)\n    {\n        (, uint256 stakeAmount, , ) = validatorset.currentValidatorSet(\n            validatorset.currentValidatorSetMap(consensusAddress) - 1\n        );\n        uint256 totalDelegation = stakepool.getTotalDelegation(\n            consensusAddress\n        );\n        uint256 totalPower = stakeAmount + totalDelegation;\n        return totalPower;\n    }\n\n    function calculateAndTransferReward(address consensusAddress)\n        private\n        onlyInit\n    {\n        (, uint256 stakeAmount, , ) = validatorset.currentValidatorSet(\n            validatorset.currentValidatorSetMap(consensusAddress) - 1\n        );\n        uint256 totalDelegation = stakepool.getTotalDelegation(\n            consensusAddress\n        );\n        uint256 totalPower = stakeAmount + totalDelegation;\n        uint256 validatorGets = (stakeAmount *\n            rewardMapping[consensusAddress]) / totalPower;\n        payable(consensusAddress).transfer(validatorGets);\n        address[] memory delegators = stakepool.getDelegators(consensusAddress);\n        for (uint256 i = 0; i < delegators.length; i++) {\n            address delegator = delegators[i];\n            uint256 delegateAmount = stakepool\n            .getUserTotalDelegationAmountCallable(delegator, consensusAddress);\n            uint256 delegatorGets = (delegateAmount *\n                rewardMapping[consensusAddress]) / totalPower;\n            payable(delegator).transfer(delegatorGets);\n        }\n    }\n}\n",
  "sourcePath": "/Users/sakonthephamongkhol/Downloads/Intern/BKC-PoSA/truffle/contracts/SystemReward.sol",
  "compiler": {
    "name": "solc",
    "version": "0.8.6+commit.11564f7e.Emscripten.clang"
  },
  "schemaVersion": "3.4.1",
  "updatedAt": "2021-06-29T11:03:19.726Z",
  "networkType": "ethereum",
  "devdoc": {
    "kind": "dev",
    "methods": {},
    "version": 1
  },
  "userdoc": {
    "kind": "user",
    "methods": {},
    "version": 1
  }
}