{
  "contractName": "ValidatorPool",
  "abi": [
    {
      "inputs": [],
      "name": "alreadyInit",
      "outputs": [
        {
          "internalType": "bool",
          "name": "",
          "type": "bool"
        }
      ],
      "stateMutability": "view",
      "type": "function",
      "constant": true
    },
    {
      "inputs": [
        {
          "internalType": "address",
          "name": "",
          "type": "address"
        }
      ],
      "name": "validatorUnBondQueue",
      "outputs": [
        {
          "internalType": "uint256",
          "name": "",
          "type": "uint256"
        }
      ],
      "stateMutability": "view",
      "type": "function",
      "constant": true
    },
    {
      "inputs": [
        {
          "internalType": "uint256",
          "name": "",
          "type": "uint256"
        }
      ],
      "name": "validators",
      "outputs": [
        {
          "internalType": "address",
          "name": "consensusAddress",
          "type": "address"
        },
        {
          "internalType": "uint256",
          "name": "stakeAmount",
          "type": "uint256"
        },
        {
          "internalType": "enum IBond.BondStatus",
          "name": "bondStatus",
          "type": "uint8"
        },
        {
          "internalType": "bool",
          "name": "isJail",
          "type": "bool"
        }
      ],
      "stateMutability": "view",
      "type": "function",
      "constant": true
    },
    {
      "inputs": [
        {
          "internalType": "address",
          "name": "",
          "type": "address"
        }
      ],
      "name": "validatorsMap",
      "outputs": [
        {
          "internalType": "uint256",
          "name": "",
          "type": "uint256"
        }
      ],
      "stateMutability": "view",
      "type": "function",
      "constant": true
    },
    {
      "inputs": [],
      "name": "NumberOfValidator",
      "outputs": [
        {
          "internalType": "uint256",
          "name": "",
          "type": "uint256"
        }
      ],
      "stateMutability": "view",
      "type": "function",
      "constant": true
    },
    {
      "inputs": [
        {
          "internalType": "address",
          "name": "BKCValidatorSetAddress",
          "type": "address"
        },
        {
          "internalType": "address",
          "name": "StakePoolAddress",
          "type": "address"
        }
      ],
      "name": "init",
      "outputs": [],
      "stateMutability": "payable",
      "type": "function",
      "payable": true
    },
    {
      "inputs": [
        {
          "internalType": "address",
          "name": "consensusAddress",
          "type": "address"
        },
        {
          "internalType": "uint256",
          "name": "amount",
          "type": "uint256"
        }
      ],
      "name": "withdrawFund",
      "outputs": [],
      "stateMutability": "nonpayable",
      "type": "function"
    },
    {
      "inputs": [
        {
          "internalType": "address",
          "name": "consensusAddress",
          "type": "address"
        }
      ],
      "name": "validatorTopUp",
      "outputs": [],
      "stateMutability": "payable",
      "type": "function",
      "payable": true
    },
    {
      "inputs": [
        {
          "internalType": "address",
          "name": "consensusAddress",
          "type": "address"
        }
      ],
      "name": "bondValidator",
      "outputs": [],
      "stateMutability": "nonpayable",
      "type": "function"
    },
    {
      "inputs": [
        {
          "internalType": "address",
          "name": "consensusAddress",
          "type": "address"
        }
      ],
      "name": "unBondValidator",
      "outputs": [],
      "stateMutability": "nonpayable",
      "type": "function"
    },
    {
      "inputs": [
        {
          "internalType": "address",
          "name": "consensusAddress",
          "type": "address"
        }
      ],
      "name": "removeUnBondingValidatorFromQueue",
      "outputs": [],
      "stateMutability": "nonpayable",
      "type": "function"
    },
    {
      "inputs": [
        {
          "internalType": "address",
          "name": "consensusAddress",
          "type": "address"
        }
      ],
      "name": "jailValidator",
      "outputs": [],
      "stateMutability": "nonpayable",
      "type": "function"
    },
    {
      "inputs": [
        {
          "internalType": "address",
          "name": "consensusAddress",
          "type": "address"
        }
      ],
      "name": "unJailValidator",
      "outputs": [],
      "stateMutability": "nonpayable",
      "type": "function"
    },
    {
      "inputs": [],
      "name": "registerValidator",
      "outputs": [],
      "stateMutability": "payable",
      "type": "function",
      "payable": true
    },
    {
      "inputs": [
        {
          "internalType": "address",
          "name": "consensusAddress",
          "type": "address"
        }
      ],
      "name": "getTotalPower",
      "outputs": [
        {
          "internalType": "uint256",
          "name": "",
          "type": "uint256"
        }
      ],
      "stateMutability": "view",
      "type": "function",
      "constant": true
    },
    {
      "inputs": [
        {
          "internalType": "address",
          "name": "consensusAddress",
          "type": "address"
        },
        {
          "internalType": "bool",
          "name": "operation",
          "type": "bool"
        }
      ],
      "name": "rePositionValidator",
      "outputs": [],
      "stateMutability": "nonpayable",
      "type": "function"
    }
  ],
  "bytecode": "0x60806040526201518060015534801561001757600080fd5b50613adc806100276000396000f3fe6080604052600436106100f35760003560e01c8063a78abc161161008a578063d7dc81cd11610059578063d7dc81cd146102fb578063e589b61e14610338578063f09a401614610361578063f7c8d2211461037d576100f3565b8063a78abc1614610260578063b63389171461028b578063bcc6587f146102c8578063cac16763146102d2576100f3565b806335aa2e44116100c657806335aa2e44146101b2578063360d80ec146101f257806341eeacdb1461021b578063446ecbfc14610244576100f3565b8063099296a5146100f85780630c42f6311461013557806325a0ba39146101605780633004d42a14610189575b600080fd5b34801561010457600080fd5b5061011f600480360381019061011a9190612fbe565b6103a6565b60405161012c9190613523565b60405180910390f35b34801561014157600080fd5b5061014a6103be565b6040516101579190613523565b60405180910390f35b34801561016c57600080fd5b5061018760048036038101906101829190612fbe565b6103cb565b005b34801561019557600080fd5b506101b060048036038101906101ab919061302b565b6105e5565b005b3480156101be57600080fd5b506101d960048036038101906101d491906130ab565b61189f565b6040516101e99493929190613323565b60405180910390f35b3480156101fe57600080fd5b5061021960048036038101906102149190612fbe565b611919565b005b34801561022757600080fd5b50610242600480360381019061023d9190612fbe565b611a92565b005b61025e60048036038101906102599190612fbe565b611c5c565b005b34801561026c57600080fd5b50610275611ec9565b6040516102829190613368565b60405180910390f35b34801561029757600080fd5b506102b260048036038101906102ad9190612fbe565b611eda565b6040516102bf9190613523565b60405180910390f35b6102d0611ef2565b005b3480156102de57600080fd5b506102f960048036038101906102f49190612fbe565b6120ef565b005b34801561030757600080fd5b50610322600480360381019061031d9190612fbe565b61231e565b60405161032f9190613523565b60405180910390f35b34801561034457600080fd5b5061035f600480360381019061035a9190612fbe565b61244d565b005b61037b60048036038101906103769190612feb565b61267c565b005b34801561038957600080fd5b506103a4600480360381019061039f919061306b565b6127ec565b005b60086020528060005260406000206000915090505481565b6000600280549050905090565b60008054906101000a900460ff16610418576040517f08c379a000000000000000000000000000000000000000000000000000000000815260040161040f906133a3565b60405180910390fd5b8073ffffffffffffffffffffffffffffffffffffffff163373ffffffffffffffffffffffffffffffffffffffff1614610486576040517f08c379a000000000000000000000000000000000000000000000000000000000815260040161047d90613383565b60405180910390fd5b600860008273ffffffffffffffffffffffffffffffffffffffff1673ffffffffffffffffffffffffffffffffffffffff168152602001908152602001600020544211610507576040517f08c379a00000000000000000000000000000000000000000000000000000000081526004016104fe906134e3565b60405180910390fd5b600860008273ffffffffffffffffffffffffffffffffffffffff1673ffffffffffffffffffffffffffffffffffffffff168152602001908152602001600020600090556002806001600360008573ffffffffffffffffffffffffffffffffffffffff1673ffffffffffffffffffffffffffffffffffffffff1681526020019081526020016000205461059991906135a5565b815481106105aa576105a9613746565b5b906000526020600020906003020160020160006101000a81548160ff021916908360028111156105dd576105dc6136e8565b5b021790555050565b3073ffffffffffffffffffffffffffffffffffffffff163373ffffffffffffffffffffffffffffffffffffffff16148061066c5750600760009054906101000a900473ffffffffffffffffffffffffffffffffffffffff1673ffffffffffffffffffffffffffffffffffffffff163373ffffffffffffffffffffffffffffffffffffffff16145b61067557600080fd5b60006001600360008573ffffffffffffffffffffffffffffffffffffffff1673ffffffffffffffffffffffffffffffffffffffff168152602001908152602001600020546106c391906135a5565b905060006106d08461231e565b90508215610f9c5760008214156106e857505061189b565b6107376002600081548110610700576106ff613746565b5b906000526020600020906003020160000160009054906101000a900473ffffffffffffffffffffffffffffffffffffffff1661231e565b8110610b235760006002838154811061075357610752613746565b5b90600052602060002090600302016040518060800160405290816000820160009054906101000a900473ffffffffffffffffffffffffffffffffffffffff1673ffffffffffffffffffffffffffffffffffffffff1673ffffffffffffffffffffffffffffffffffffffff168152602001600182015481526020016002820160009054906101000a900460ff1660028111156107f1576107f06136e8565b5b6002811115610803576108026136e8565b5b81526020016002820160019054906101000a900460ff161515151581525050905060008390505b6000811115610a0957600260018261084291906135a5565b8154811061085357610852613746565b5b90600052602060002090600302016002828154811061087557610874613746565b5b90600052602060002090600302016000820160009054906101000a900473ffffffffffffffffffffffffffffffffffffffff168160000160006101000a81548173ffffffffffffffffffffffffffffffffffffffff021916908373ffffffffffffffffffffffffffffffffffffffff160217905550600182015481600101556002820160009054906101000a900460ff168160020160006101000a81548160ff0219169083600281111561092c5761092b6136e8565b5b02179055506002820160019054906101000a900460ff168160020160016101000a81548160ff02191690831515021790555090505060018161096e919061354f565b600360006002848154811061098657610985613746565b5b906000526020600020906003020160000160009054906101000a900473ffffffffffffffffffffffffffffffffffffffff1673ffffffffffffffffffffffffffffffffffffffff1673ffffffffffffffffffffffffffffffffffffffff168152602001908152602001600020819055508080610a0190613646565b91505061082a565b50806002600081548110610a2057610a1f613746565b5b906000526020600020906003020160008201518160000160006101000a81548173ffffffffffffffffffffffffffffffffffffffff021916908373ffffffffffffffffffffffffffffffffffffffff1602179055506020820151816001015560408201518160020160006101000a81548160ff02191690836002811115610aaa57610aa96136e8565b5b021790555060608201518160020160016101000a81548160ff021916908315150217905550905050600160036000836000015173ffffffffffffffffffffffffffffffffffffffff1673ffffffffffffffffffffffffffffffffffffffff1681526020019081526020016000208190555050505061189b565b60008290505b6000811115610f965781610b8d6002600184610b4591906135a5565b81548110610b5657610b55613746565b5b906000526020600020906003020160000160009054906101000a900473ffffffffffffffffffffffffffffffffffffffff1661231e565b1115610f8357600060028481548110610ba957610ba8613746565b5b90600052602060002090600302016040518060800160405290816000820160009054906101000a900473ffffffffffffffffffffffffffffffffffffffff1673ffffffffffffffffffffffffffffffffffffffff1673ffffffffffffffffffffffffffffffffffffffff168152602001600182015481526020016002820160009054906101000a900460ff166002811115610c4757610c466136e8565b5b6002811115610c5957610c586136e8565b5b81526020016002820160019054906101000a900460ff161515151581525050905060008490505b82811115610e5e576002600182610c9791906135a5565b81548110610ca857610ca7613746565b5b906000526020600020906003020160028281548110610cca57610cc9613746565b5b90600052602060002090600302016000820160009054906101000a900473ffffffffffffffffffffffffffffffffffffffff168160000160006101000a81548173ffffffffffffffffffffffffffffffffffffffff021916908373ffffffffffffffffffffffffffffffffffffffff160217905550600182015481600101556002820160009054906101000a900460ff168160020160006101000a81548160ff02191690836002811115610d8157610d806136e8565b5b02179055506002820160019054906101000a900460ff168160020160016101000a81548160ff021916908315150217905550905050600181610dc3919061354f565b6003600060028481548110610ddb57610dda613746565b5b906000526020600020906003020160000160009054906101000a900473ffffffffffffffffffffffffffffffffffffffff1673ffffffffffffffffffffffffffffffffffffffff1673ffffffffffffffffffffffffffffffffffffffff168152602001908152602001600020819055508080610e5690613646565b915050610c80565b508060028381548110610e7457610e73613746565b5b906000526020600020906003020160008201518160000160006101000a81548173ffffffffffffffffffffffffffffffffffffffff021916908373ffffffffffffffffffffffffffffffffffffffff1602179055506020820151816001015560408201518160020160006101000a81548160ff02191690836002811115610efe57610efd6136e8565b5b021790555060608201518160020160016101000a81548160ff021916908315150217905550905050600182610f33919061354f565b60036000836000015173ffffffffffffffffffffffffffffffffffffffff1673ffffffffffffffffffffffffffffffffffffffff168152602001908152602001600020819055505050505061189b565b8080610f8e90613646565b915050610b29565b50611898565b600280549050821415610fb057505061189b565b61100f60026001600280549050610fc791906135a5565b81548110610fd857610fd7613746565b5b906000526020600020906003020160000160009054906101000a900473ffffffffffffffffffffffffffffffffffffffff1661231e565b811161141f5760006002838154811061102b5761102a613746565b5b90600052602060002090600302016040518060800160405290816000820160009054906101000a900473ffffffffffffffffffffffffffffffffffffffff1673ffffffffffffffffffffffffffffffffffffffff1673ffffffffffffffffffffffffffffffffffffffff168152602001600182015481526020016002820160009054906101000a900460ff1660028111156110c9576110c86136e8565b5b60028111156110db576110da6136e8565b5b81526020016002820160019054906101000a900460ff161515151581525050905060008390505b600160028054905061111491906135a5565b8110156112f157600260018261112a919061354f565b8154811061113b5761113a613746565b5b90600052602060002090600302016002828154811061115d5761115c613746565b5b90600052602060002090600302016000820160009054906101000a900473ffffffffffffffffffffffffffffffffffffffff168160000160006101000a81548173ffffffffffffffffffffffffffffffffffffffff021916908373ffffffffffffffffffffffffffffffffffffffff160217905550600182015481600101556002820160009054906101000a900460ff168160020160006101000a81548160ff02191690836002811115611214576112136136e8565b5b02179055506002820160019054906101000a900460ff168160020160016101000a81548160ff021916908315150217905550905050600181611256919061354f565b600360006002848154811061126e5761126d613746565b5b906000526020600020906003020160000160009054906101000a900473ffffffffffffffffffffffffffffffffffffffff1673ffffffffffffffffffffffffffffffffffffffff1673ffffffffffffffffffffffffffffffffffffffff1681526020019081526020016000208190555080806112e990613670565b915050611102565b50806002600160028054905061130791906135a5565b8154811061131857611317613746565b5b906000526020600020906003020160008201518160000160006101000a81548173ffffffffffffffffffffffffffffffffffffffff021916908373ffffffffffffffffffffffffffffffffffffffff1602179055506020820151816001015560408201518160020160006101000a81548160ff021916908360028111156113a2576113a16136e8565b5b021790555060608201518160020160016101000a81548160ff02191690831515021790555090505060028054905060036000836000015173ffffffffffffffffffffffffffffffffffffffff1673ffffffffffffffffffffffffffffffffffffffff1681526020019081526020016000208190555050505061189b565b60008290505b600280549050811015611896578161148d6002600184611445919061354f565b8154811061145657611455613746565b5b906000526020600020906003020160000160009054906101000a900473ffffffffffffffffffffffffffffffffffffffff1661231e565b1015611883576000600284815481106114a9576114a8613746565b5b90600052602060002090600302016040518060800160405290816000820160009054906101000a900473ffffffffffffffffffffffffffffffffffffffff1673ffffffffffffffffffffffffffffffffffffffff1673ffffffffffffffffffffffffffffffffffffffff168152602001600182015481526020016002820160009054906101000a900460ff166002811115611547576115466136e8565b5b6002811115611559576115586136e8565b5b81526020016002820160019054906101000a900460ff161515151581525050905060008490505b8281101561175e576002600182611597919061354f565b815481106115a8576115a7613746565b5b9060005260206000209060030201600282815481106115ca576115c9613746565b5b90600052602060002090600302016000820160009054906101000a900473ffffffffffffffffffffffffffffffffffffffff168160000160006101000a81548173ffffffffffffffffffffffffffffffffffffffff021916908373ffffffffffffffffffffffffffffffffffffffff160217905550600182015481600101556002820160009054906101000a900460ff168160020160006101000a81548160ff02191690836002811115611681576116806136e8565b5b02179055506002820160019054906101000a900460ff168160020160016101000a81548160ff0219169083151502179055509050506001816116c3919061354f565b60036000600284815481106116db576116da613746565b5b906000526020600020906003020160000160009054906101000a900473ffffffffffffffffffffffffffffffffffffffff1673ffffffffffffffffffffffffffffffffffffffff1673ffffffffffffffffffffffffffffffffffffffff16815260200190815260200160002081905550808061175690613670565b915050611580565b50806002838154811061177457611773613746565b5b906000526020600020906003020160008201518160000160006101000a81548173ffffffffffffffffffffffffffffffffffffffff021916908373ffffffffffffffffffffffffffffffffffffffff1602179055506020820151816001015560408201518160020160006101000a81548160ff021916908360028111156117fe576117fd6136e8565b5b021790555060608201518160020160016101000a81548160ff021916908315150217905550905050600182611833919061354f565b60036000836000015173ffffffffffffffffffffffffffffffffffffffff1673ffffffffffffffffffffffffffffffffffffffff168152602001908152602001600020819055505050505061189b565b808061188e90613670565b915050611425565b505b50505b5050565b600281815481106118af57600080fd5b90600052602060002090600302016000915090508060000160009054906101000a900473ffffffffffffffffffffffffffffffffffffffff16908060010154908060020160009054906101000a900460ff16908060020160019054906101000a900460ff16905084565b60008054906101000a900460ff16611966576040517f08c379a000000000000000000000000000000000000000000000000000000000815260040161195d906133a3565b60405180910390fd5b600660009054906101000a900473ffffffffffffffffffffffffffffffffffffffff1673ffffffffffffffffffffffffffffffffffffffff163373ffffffffffffffffffffffffffffffffffffffff16146119f6576040517f08c379a00000000000000000000000000000000000000000000000000000000081526004016119ed90613463565b60405180910390fd5b600060026001600360008573ffffffffffffffffffffffffffffffffffffffff1673ffffffffffffffffffffffffffffffffffffffff16815260200190815260200160002054611a4691906135a5565b81548110611a5757611a56613746565b5b906000526020600020906003020160020160006101000a81548160ff02191690836002811115611a8a57611a896136e8565b5b021790555050565b60008054906101000a900460ff16611adf576040517f08c379a0000000000000000000000000000000000000000000000000000000008152600401611ad6906133a3565b60405180910390fd5b600660009054906101000a900473ffffffffffffffffffffffffffffffffffffffff1673ffffffffffffffffffffffffffffffffffffffff163373ffffffffffffffffffffffffffffffffffffffff1614611b6f576040517f08c379a0000000000000000000000000000000000000000000000000000000008152600401611b6690613463565b60405180910390fd5b600160026001600360008573ffffffffffffffffffffffffffffffffffffffff1673ffffffffffffffffffffffffffffffffffffffff16815260200190815260200160002054611bbf91906135a5565b81548110611bd057611bcf613746565b5b906000526020600020906003020160020160006101000a81548160ff02191690836002811115611c0357611c026136e8565b5b021790555060015442611c16919061354f565b600860008373ffffffffffffffffffffffffffffffffffffffff1673ffffffffffffffffffffffffffffffffffffffff1681526020019081526020016000208190555050565b60008054906101000a900460ff16611ca9576040517f08c379a0000000000000000000000000000000000000000000000000000000008152600401611ca0906133a3565b60405180910390fd5b80600280811115611cbd57611cbc6136e8565b5b60026001600360008573ffffffffffffffffffffffffffffffffffffffff1673ffffffffffffffffffffffffffffffffffffffff16815260200190815260200160002054611d0b91906135a5565b81548110611d1c57611d1b613746565b5b906000526020600020906003020160020160009054906101000a900460ff166002811115611d4d57611d4c6136e8565b5b14611d8d576040517f08c379a0000000000000000000000000000000000000000000000000000000008152600401611d84906133e3565b60405180910390fd5b8173ffffffffffffffffffffffffffffffffffffffff163373ffffffffffffffffffffffffffffffffffffffff1614611dfb576040517f08c379a0000000000000000000000000000000000000000000000000000000008152600401611df290613423565b60405180910390fd5b60003411611e3e576040517f08c379a0000000000000000000000000000000000000000000000000000000008152600401611e3590613503565b60405180910390fd5b3460026001600360008673ffffffffffffffffffffffffffffffffffffffff1673ffffffffffffffffffffffffffffffffffffffff16815260200190815260200160002054611e8d91906135a5565b81548110611e9e57611e9d613746565b5b90600052602060002090600302016001016000828254611ebe919061354f565b925050819055505050565b60008054906101000a900460ff1681565b60036020528060005260406000206000915090505481565b60008054906101000a900460ff16611f3f576040517f08c379a0000000000000000000000000000000000000000000000000000000008152600401611f36906133a3565b60405180910390fd5b678ac7230489e80000341015611f8a576040517f08c379a0000000000000000000000000000000000000000000000000000000008152600401611f81906134c3565b60405180910390fd5b600260405180608001604052803373ffffffffffffffffffffffffffffffffffffffff168152602001348152602001600280811115611fcc57611fcb6136e8565b5b815260200160001515815250908060018154018082558091505060019003906000526020600020906003020160009091909190915060008201518160000160006101000a81548173ffffffffffffffffffffffffffffffffffffffff021916908373ffffffffffffffffffffffffffffffffffffffff1602179055506020820151816001015560408201518160020160006101000a81548160ff0219169083600281111561207d5761207c6136e8565b5b021790555060608201518160020160016101000a81548160ff0219169083151502179055505050600280549050600360003373ffffffffffffffffffffffffffffffffffffffff1673ffffffffffffffffffffffffffffffffffffffff16815260200190815260200160002081905550565b60008054906101000a900460ff1661213c576040517f08c379a0000000000000000000000000000000000000000000000000000000008152600401612133906133a3565b60405180910390fd5b336000600460009054906101000a900473ffffffffffffffffffffffffffffffffffffffff1673ffffffffffffffffffffffffffffffffffffffff1663ad3c9da6836040518263ffffffff1660e01b815260040161219a9190613308565b60206040518083038186803b1580156121b257600080fd5b505afa1580156121c6573d6000803e3d6000fd5b505050506040513d601f19601f820116820180604052508101906121ea91906130d8565b1161222a576040517f08c379a000000000000000000000000000000000000000000000000000000000815260040161222190613483565b60405180910390fd5b81338073ffffffffffffffffffffffffffffffffffffffff168273ffffffffffffffffffffffffffffffffffffffff16141561229b576040517f08c379a000000000000000000000000000000000000000000000000000000000815260040161229290613403565b60405180910390fd5b60006002600360008773ffffffffffffffffffffffffffffffffffffffff1673ffffffffffffffffffffffffffffffffffffffff16815260200190815260200160002054815481106122f0576122ef613746565b5b906000526020600020906003020160020160016101000a81548160ff02191690831515021790555050505050565b6000600560009054906101000a900473ffffffffffffffffffffffffffffffffffffffff1673ffffffffffffffffffffffffffffffffffffffff1663fc5e7e09836040518263ffffffff1660e01b815260040161237b9190613308565b60206040518083038186803b15801561239357600080fd5b505afa1580156123a7573d6000803e3d6000fd5b505050506040513d601f19601f820116820180604052508101906123cb91906130d8565b60026001600360008673ffffffffffffffffffffffffffffffffffffffff1673ffffffffffffffffffffffffffffffffffffffff1681526020019081526020016000205461241991906135a5565b8154811061242a57612429613746565b5b906000526020600020906003020160010154612446919061354f565b9050919050565b60008054906101000a900460ff1661249a576040517f08c379a0000000000000000000000000000000000000000000000000000000008152600401612491906133a3565b60405180910390fd5b336000600460009054906101000a900473ffffffffffffffffffffffffffffffffffffffff1673ffffffffffffffffffffffffffffffffffffffff1663ad3c9da6836040518263ffffffff1660e01b81526004016124f89190613308565b60206040518083038186803b15801561251057600080fd5b505afa158015612524573d6000803e3d6000fd5b505050506040513d601f19601f8201168201806040525081019061254891906130d8565b11612588576040517f08c379a000000000000000000000000000000000000000000000000000000000815260040161257f90613483565b60405180910390fd5b81338073ffffffffffffffffffffffffffffffffffffffff168273ffffffffffffffffffffffffffffffffffffffff1614156125f9576040517f08c379a00000000000000000000000000000000000000000000000000000000081526004016125f090613403565b60405180910390fd5b60016002600360008773ffffffffffffffffffffffffffffffffffffffff1673ffffffffffffffffffffffffffffffffffffffff168152602001908152602001600020548154811061264e5761264d613746565b5b906000526020600020906003020160020160016101000a81548160ff02191690831515021790555050505050565b60008054906101000a900460ff16156126ca576040517f08c379a00000000000000000000000000000000000000000000000000000000081526004016126c190613443565b60405180910390fd5b81600460006101000a81548173ffffffffffffffffffffffffffffffffffffffff021916908373ffffffffffffffffffffffffffffffffffffffff16021790555080600560006101000a81548173ffffffffffffffffffffffffffffffffffffffff021916908373ffffffffffffffffffffffffffffffffffffffff16021790555081600660006101000a81548173ffffffffffffffffffffffffffffffffffffffff021916908373ffffffffffffffffffffffffffffffffffffffff16021790555080600760006101000a81548173ffffffffffffffffffffffffffffffffffffffff021916908373ffffffffffffffffffffffffffffffffffffffff16021790555060016000806101000a81548160ff0219169083151502179055505050565b60008054906101000a900460ff16612839576040517f08c379a0000000000000000000000000000000000000000000000000000000008152600401612830906133a3565b60405180910390fd5b8160028081111561284d5761284c6136e8565b5b60026001600360008573ffffffffffffffffffffffffffffffffffffffff1673ffffffffffffffffffffffffffffffffffffffff1681526020019081526020016000205461289b91906135a5565b815481106128ac576128ab613746565b5b906000526020600020906003020160020160009054906101000a900460ff1660028111156128dd576128dc6136e8565b5b1461291d576040517f08c379a0000000000000000000000000000000000000000000000000000000008152600401612914906133e3565b60405180910390fd5b8273ffffffffffffffffffffffffffffffffffffffff163373ffffffffffffffffffffffffffffffffffffffff161461298b576040517f08c379a0000000000000000000000000000000000000000000000000000000008152600401612982906133c3565b60405180910390fd5b8160026001600360008773ffffffffffffffffffffffffffffffffffffffff1673ffffffffffffffffffffffffffffffffffffffff168152602001908152602001600020546129da91906135a5565b815481106129eb576129ea613746565b5b90600052602060002090600302016001015411612a3d576040517f08c379a0000000000000000000000000000000000000000000000000000000008152600401612a34906134a3565b60405180910390fd5b8273ffffffffffffffffffffffffffffffffffffffff166108fc839081150290604051600060405180830381858888f19350505050158015612a83573d6000803e3d6000fd5b508160026001600360008773ffffffffffffffffffffffffffffffffffffffff1673ffffffffffffffffffffffffffffffffffffffff16815260200190815260200160002054612ad391906135a5565b81548110612ae457612ae3613746565b5b90600052602060002090600302016001016000828254612b0491906135a5565b925050819055506000612b1684612b1e565b905050505050565b6000678ac7230489e8000060026001600360008673ffffffffffffffffffffffffffffffffffffffff1673ffffffffffffffffffffffffffffffffffffffff16815260200190815260200160002054612b7791906135a5565b81548110612b8857612b87613746565b5b9060005260206000209060030201600101541015612f60576000600360008473ffffffffffffffffffffffffffffffffffffffff1673ffffffffffffffffffffffffffffffffffffffff16815260200190815260200160002054905060008190505b6001600280549050612bfc91906135a5565b811015612dd9576002600182612c12919061354f565b81548110612c2357612c22613746565b5b906000526020600020906003020160028281548110612c4557612c44613746565b5b90600052602060002090600302016000820160009054906101000a900473ffffffffffffffffffffffffffffffffffffffff168160000160006101000a81548173ffffffffffffffffffffffffffffffffffffffff021916908373ffffffffffffffffffffffffffffffffffffffff160217905550600182015481600101556002820160009054906101000a900460ff168160020160006101000a81548160ff02191690836002811115612cfc57612cfb6136e8565b5b02179055506002820160019054906101000a900460ff168160020160016101000a81548160ff021916908315150217905550905050600181612d3e919061354f565b6003600060028481548110612d5657612d55613746565b5b906000526020600020906003020160000160009054906101000a900473ffffffffffffffffffffffffffffffffffffffff1673ffffffffffffffffffffffffffffffffffffffff1673ffffffffffffffffffffffffffffffffffffffff168152602001908152602001600020819055508080612dd190613670565b915050612bea565b508273ffffffffffffffffffffffffffffffffffffffff166108fc60026001600360008873ffffffffffffffffffffffffffffffffffffffff1673ffffffffffffffffffffffffffffffffffffffff16815260200190815260200160002054612e4291906135a5565b81548110612e5357612e52613746565b5b9060005260206000209060030201600101549081150290604051600060405180830381858888f19350505050158015612e90573d6000803e3d6000fd5b506002805480612ea357612ea2613717565b5b6001900381819060005260206000209060030201600080820160006101000a81549073ffffffffffffffffffffffffffffffffffffffff021916905560018201600090556002820160006101000a81549060ff02191690556002820160016101000a81549060ff021916905550509055600360008473ffffffffffffffffffffffffffffffffffffffff1673ffffffffffffffffffffffffffffffffffffffff168152602001908152602001600020600090556000915050612f65565b600190505b919050565b600081359050612f7981613a61565b92915050565b600081359050612f8e81613a78565b92915050565b600081359050612fa381613a8f565b92915050565b600081519050612fb881613a8f565b92915050565b600060208284031215612fd457612fd3613775565b5b6000612fe284828501612f6a565b91505092915050565b6000806040838503121561300257613001613775565b5b600061301085828601612f6a565b925050602061302185828601612f6a565b9150509250929050565b6000806040838503121561304257613041613775565b5b600061305085828601612f6a565b925050602061306185828601612f7f565b9150509250929050565b6000806040838503121561308257613081613775565b5b600061309085828601612f6a565b92505060206130a185828601612f94565b9150509250929050565b6000602082840312156130c1576130c0613775565b5b60006130cf84828501612f94565b91505092915050565b6000602082840312156130ee576130ed613775565b5b60006130fc84828501612fa9565b91505092915050565b61310e816135d9565b82525050565b61311d816135eb565b82525050565b61312c81613634565b82525050565b600061313f601c8361353e565b915061314a8261377a565b602082019050919050565b600061316260198361353e565b915061316d826137a3565b602082019050919050565b6000613185601b8361353e565b9150613190826137cc565b602082019050919050565b60006131a8602b8361353e565b91506131b3826137f5565b604082019050919050565b60006131cb602e8361353e565b91506131d682613844565b604082019050919050565b60006131ee60178361353e565b91506131f982613893565b602082019050919050565b600061321160198361353e565b915061321c826138bc565b602082019050919050565b600061323460308361353e565b915061323f826138e5565b604082019050919050565b600061325760228361353e565b915061326282613934565b604082019050919050565b600061327a601b8361353e565b915061328582613983565b602082019050919050565b600061329d603f8361353e565b91506132a8826139ac565b604082019050919050565b60006132c0601b8361353e565b91506132cb826139fb565b602082019050919050565b60006132e3601a8361353e565b91506132ee82613a24565b602082019050919050565b6133028161362a565b82525050565b600060208201905061331d6000830184613105565b92915050565b60006080820190506133386000830187613105565b61334560208301866132f9565b6133526040830185613123565b61335f6060830184613114565b95945050505050565b600060208201905061337d6000830184613114565b92915050565b6000602082019050818103600083015261339c81613132565b9050919050565b600060208201905081810360008301526133bc81613155565b9050919050565b600060208201905081810360008301526133dc81613178565b9050919050565b600060208201905081810360008301526133fc8161319b565b9050919050565b6000602082019050818103600083015261341c816131be565b9050919050565b6000602082019050818103600083015261343c816131e1565b9050919050565b6000602082019050818103600083015261345c81613204565b9050919050565b6000602082019050818103600083015261347c81613227565b9050919050565b6000602082019050818103600083015261349c8161324a565b9050919050565b600060208201905081810360008301526134bc8161326d565b9050919050565b600060208201905081810360008301526134dc81613290565b9050919050565b600060208201905081810360008301526134fc816132b3565b9050919050565b6000602082019050818103600083015261351c816132d6565b9050919050565b600060208201905061353860008301846132f9565b92915050565b600082825260208201905092915050565b600061355a8261362a565b91506135658361362a565b9250827fffffffffffffffffffffffffffffffffffffffffffffffffffffffffffffffff0382111561359a576135996136b9565b5b828201905092915050565b60006135b08261362a565b91506135bb8361362a565b9250828210156135ce576135cd6136b9565b5b828203905092915050565b60006135e48261360a565b9050919050565b60008115159050919050565b600081905061360582613a4d565b919050565b600073ffffffffffffffffffffffffffffffffffffffff82169050919050565b6000819050919050565b600061363f826135f7565b9050919050565b60006136518261362a565b91506000821415613665576136646136b9565b5b600182039050919050565b600061367b8261362a565b91507fffffffffffffffffffffffffffffffffffffffffffffffffffffffffffffffff8214156136ae576136ad6136b9565b5b600182019050919050565b7f4e487b7100000000000000000000000000000000000000000000000000000000600052601160045260246000fd5b7f4e487b7100000000000000000000000000000000000000000000000000000000600052602160045260246000fd5b7f4e487b7100000000000000000000000000000000000000000000000000000000600052603160045260246000fd5b7f4e487b7100000000000000000000000000000000000000000000000000000000600052603260045260246000fd5b600080fd5b7f63616e277420756e626f6e64206f746865722c206f6e6c7920796f7500000000600082015250565b7f74686520636f6e7472616374206e6f7420696e69742079657400000000000000600082015250565b7f63616e2774207769746864726177206f7468657273272066756e640000000000600082015250565b7f63616e277420646f206f7065726174696f6e207768656e20756e626f6e64696e60008201527f67206f7220626f6e646564000000000000000000000000000000000000000000602082015250565b7f6f6e6c79206f746865722076616c696461746f72732063616e2070726f76652060008201527f796f757220696e6e6f63656e6365000000000000000000000000000000000000602082015250565b7f63616e277420746f7020757020666f72206f7468657273000000000000000000600082015250565b7f74686520636f6e747261637420616c726561647920696e697400000000000000600082015250565b7f63616e206f6e6c792062652063616c6c65642066726f6d20424b4356616c696460008201527f61746f7253657420436f6e747261637400000000000000000000000000000000602082015250565b7f6e6f7420616c6c6f7720666f72206e6f6e2d6163746976652076616c6964617460008201527f6f72000000000000000000000000000000000000000000000000000000000000602082015250565b7f6e6f7420656e6f7567682066756e6420746f2077697468647261770000000000600082015250565b7f63616e277420726567697374657220746f20626520612076616c696461746f7260008201527f206e6f7420656e6f756768207374616b696e6720616d6f756e742073656e7400602082015250565b7f756e626f6e64696e67207374696c6c20696e2070726f67726573730000000000600082015250565b7f63616e277420746f702075702077697468203020616d6f756e74000000000000600082015250565b60038110613a5e57613a5d6136e8565b5b50565b613a6a816135d9565b8114613a7557600080fd5b50565b613a81816135eb565b8114613a8c57600080fd5b50565b613a988161362a565b8114613aa357600080fd5b5056fea26469706673582212200867cb3fad5c22de28b7183ccd11aff531231a26f2c22f957257ef7a6ceef03e64736f6c63430008060033",
  "immutableReferences": {},
  "source": "pragma solidity <=0.8.6;\n\nimport \"./System.sol\";\nimport \"./BKCValidatorSet.sol\";\nimport \"./StakePool.sol\";\nimport \"./Interface/IValidator.sol\";\n\n// [\"0xCA35b7d915458EF540aDe6068dFe2F44E8fa733c\",50,\"BondStatus.UNBONDED\",false]\n\ncontract ValidatorPool is System, IValidator {\n    Validator[] public validators;\n    mapping(address => uint256) public validatorsMap;\n\n    BKCValidatorSet private validatorset;\n    StakePool private stakepool;\n\n    address private _BKCValidatorSetAddress;\n    address private _StakePoolAddress;\n\n    uint256 constant MIN_VALIDATOR_STAKE_AMOUNT = 10 ether; //10000 * (10**18); // 10000 KUB\n\n    mapping(address => uint256) public validatorUnBondQueue;\n\n    modifier onlyValidatorInValidatorSet(address consensusAddress) {\n        require(\n            validatorset.currentValidatorSetMap(consensusAddress) > 0,\n            \"not allow for non-active validator\"\n        );\n        _;\n    }\n\n    modifier onlyOtherValidatorInValidatorSet(\n        address consensusAddress,\n        address validatorAddress\n    ) {\n        require(\n            consensusAddress != validatorAddress,\n            \"only other validators can prove your innocence\"\n        );\n        _;\n    }\n\n    modifier onlyBKCValidatorSetContract() {\n        require(\n            msg.sender == _BKCValidatorSetAddress,\n            \"can only be called from BKCValidatorSet Contract\"\n        );\n        _;\n    }\n\n    modifier onlyNotBonded(address consensusAddress) {\n        require(\n            validators[validatorsMap[consensusAddress] - 1].bondStatus ==\n                BondStatus.UNBONDED,\n            \"can't do operation when unbonding or bonded\"\n        );\n        _;\n    }\n\n    modifier onlyStakePoolContractAndThisContract {\n        require(msg.sender == address(this) || msg.sender == _StakePoolAddress);\n        _;\n    }\n\n    function NumberOfValidator() public view returns (uint256) {\n        return validators.length;\n    }\n\n    function init(address BKCValidatorSetAddress, address StakePoolAddress)\n        external\n        payable\n        onlyNotInit\n    {\n        // Validator memory firstValidator = Validator(\n        //     0xCA35b7d915458EF540aDe6068dFe2F44E8fa733c,\n        //     50 ether,\n        //     BondStatus.UNBONDED,\n        //     false\n        // );\n        // Validator memory secondValidator = Validator(\n        //     0xAb8483F64d9C6d1EcF9b849Ae677dD3315835cb2,\n        //     100,\n        //     BondStatus.UNBONDED,\n        //     false\n        // );\n        // Validator memory thirdValidator = Validator(\n        //     0x4B20993Bc481177ec7E8f571ceCaE8A9e22C02db,\n        //     75,\n        //     BondStatus.UNBONDED,\n        //     false\n        // );\n        // Validator memory fourthValidator = Validator(\n        //     0x78731D3Ca6b7E34aC0F824c42a7cC18A495cabaB,\n        //     120,\n        //     BondStatus.UNBONDED,\n        //     false\n        // );\n        // Validator memory fifthValidator = Validator(\n        //     0x617F2E2fD72FD9D5503197092aC168c91465E7f2,\n        //     20,\n        //     BondStatus.UNBONDED,\n        //     false\n        // );\n        // Validator memory sixthValidator = Validator(\n        //     0x17F6AD8Ef982297579C203069C1DbfFE4348c372,\n        //     200,\n        //     BondStatus.UNBONDED,\n        //     false\n        // );\n\n        validatorset = BKCValidatorSet(BKCValidatorSetAddress);\n        stakepool = StakePool(StakePoolAddress);\n\n        _BKCValidatorSetAddress = BKCValidatorSetAddress;\n        _StakePoolAddress = StakePoolAddress;\n\n        // validators.push(firstValidator);\n        // validatorsMap[firstValidator.consensusAddress] = 1;\n        // validators.push(secondValidator);\n        // validatorsMap[secondValidator.consensusAddress] = 2;\n        // validators.push(thirdValidator);\n        // validatorsMap[thirdValidator.consensusAddress] = 3;\n        // validators.push(fourthValidator);\n        // validatorsMap[fourthValidator.consensusAddress] = 4;\n        // validators.push(fifthValidator);\n        // validatorsMap[fifthValidator.consensusAddress] = 5;\n        // validators.push(sixthValidator);\n        // validatorsMap[sixthValidator.consensusAddress] = 6;\n\n        // addValidatorToSortedList(firstValidator);\n        // addValidatorToSortedList(secondValidator);\n        // addValidatorToSortedList(thirdValidator);\n        // addValidatorToSortedList(fourthValidator);\n        // addValidatorToSortedList(fifthValidator);\n        // addValidatorToSortedList(sixthValidator);\n\n        alreadyInit = true;\n    }\n\n    function withdrawFund(address consensusAddress, uint256 amount)\n        external\n        onlyInit\n        onlyNotBonded(consensusAddress)\n    {\n        require(msg.sender == consensusAddress, \"can't withdraw others' fund\");\n        require(\n            validators[validatorsMap[consensusAddress] - 1].stakeAmount >\n                amount,\n            \"not enough fund to withdraw\"\n        );\n        payable(consensusAddress).transfer(amount);\n        validators[validatorsMap[consensusAddress] - 1].stakeAmount -= amount;\n        bool res = reEvaluateValidator(consensusAddress);\n        if (res) {\n            // validator still have enough\n            //rePositionValidator(consensusAddress, false);\n        }\n    }\n\n    function validatorTopUp(address consensusAddress)\n        external\n        payable\n        onlyInit\n        onlyNotBonded(consensusAddress)\n    {\n        require(msg.sender == consensusAddress, \"can't top up for others\");\n        require(msg.value > 0, \"can't top up with 0 amount\");\n        validators[validatorsMap[consensusAddress] - 1].stakeAmount += msg\n        .value;\n        //rePositionValidator(consensusAddress, true);\n    }\n\n    function bondValidator(address consensusAddress)\n        external\n        onlyInit\n        onlyBKCValidatorSetContract\n    {\n        validators[validatorsMap[consensusAddress] - 1].bondStatus = BondStatus\n        .BONDED;\n    }\n\n    function unBondValidator(address consensusAddress)\n        external\n        onlyInit\n        onlyBKCValidatorSetContract\n    {\n        validators[validatorsMap[consensusAddress] - 1].bondStatus = BondStatus\n        .UNBONDING;\n        validatorUnBondQueue[consensusAddress] =\n            block.timestamp +\n            unbondingPeriod;\n    }\n\n    function removeUnBondingValidatorFromQueue(address consensusAddress)\n        public\n        onlyInit\n    {\n        require(msg.sender == consensusAddress, \"can't unbond other, only you\");\n        require(\n            block.timestamp > validatorUnBondQueue[consensusAddress],\n            \"unbonding still in progress\"\n        );\n        delete validatorUnBondQueue[consensusAddress];\n        validators[validatorsMap[consensusAddress] - 1].bondStatus = BondStatus\n        .UNBONDED;\n    }\n\n    function jailValidator(address consensusAddress)\n        public\n        onlyInit\n        onlyValidatorInValidatorSet(msg.sender)\n        onlyOtherValidatorInValidatorSet(consensusAddress, msg.sender)\n    {\n        validators[validatorsMap[consensusAddress]].isJail = true;\n        // TODO remove the validator from active validatorset;\n    }\n\n    function unJailValidator(address consensusAddress)\n        public\n        onlyInit\n        onlyValidatorInValidatorSet(msg.sender)\n        onlyOtherValidatorInValidatorSet(consensusAddress, msg.sender)\n    {\n        validators[validatorsMap[consensusAddress]].isJail = false;\n    }\n\n    function registerValidator() external payable onlyInit {\n        require(\n            msg.value >= MIN_VALIDATOR_STAKE_AMOUNT,\n            \"can't register to be a validator not enough staking amount sent\"\n        );\n        //addValidatorToSortedList(Validator(msg.sender, msg.value, BondStatus.UNBONDED, false));\n        validators.push(\n            Validator(msg.sender, msg.value, BondStatus.UNBONDED, false)\n        );\n        validatorsMap[msg.sender] = validators.length;\n    }\n\n    function getTotalPower(address consensusAddress)\n        public\n        view\n        returns (uint256)\n    {\n        return\n            validators[validatorsMap[consensusAddress] - 1].stakeAmount +\n            stakepool.getTotalDelegation(consensusAddress);\n    }\n\n    function addValidatorToSortedList(Validator memory new_validator) private {\n        uint256 have = validatorsMap[new_validator.consensusAddress];\n        if (have > 0) {\n            // validator is already in the list\n            return;\n        } else {\n            if (validators.length == 0) {\n                validators.push(new_validator);\n                validatorsMap[new_validator.consensusAddress] = 1;\n            } else if (validators.length == 1) {\n                // the incoming validator cannot have any delegation before being added into the validator list.\n                uint256 totalPower = getTotalPower(\n                    validators[0].consensusAddress\n                );\n                if (totalPower > new_validator.stakeAmount) {\n                    validators.push(new_validator);\n                    validatorsMap[new_validator.consensusAddress] = 2;\n                } else {\n                    validators.push(validators[0]);\n                    validators[0] = new_validator;\n                    validatorsMap[validators[0].consensusAddress] = 1;\n                    validatorsMap[validators[1].consensusAddress] = 2;\n                }\n            } else {\n                if (\n                    new_validator.stakeAmount >\n                    getTotalPower(validators[0].consensusAddress)\n                ) {\n                    // be the top\n                    validators.push(new_validator);\n                    for (uint256 i = validators.length - 1; i > 0; i--) {\n                        validators[i] = validators[i - 1]; // shift right\n                        validatorsMap[validators[i].consensusAddress] = i + 1;\n                    }\n                    validators[0] = new_validator;\n                    validatorsMap[new_validator.consensusAddress] = 1;\n                } else if (\n                    new_validator.stakeAmount <=\n                    getTotalPower(\n                        validators[validators.length - 1].consensusAddress\n                    )\n                ) {\n                    // be the least\n                    validators.push(new_validator);\n                    validatorsMap[new_validator.consensusAddress] = validators\n                    .length;\n                } else {\n                    for (uint256 i = 0; i < validators.length; i++) {\n                        // change the sequence according to the validator's total power;\n                        if (\n                            new_validator.stakeAmount >=\n                            getTotalPower(validators[i].consensusAddress)\n                        ) {\n                            validators.push(new_validator);\n                            for (\n                                uint256 j = validators.length - 2;\n                                j >= i;\n                                j--\n                            ) {\n                                validators[j + 1] = validators[j];\n                                validatorsMap[\n                                    validators[j + 1].consensusAddress\n                                ] = j + 2;\n                            }\n                            validators[i] = new_validator;\n                            validatorsMap[new_validator.consensusAddress] =\n                                i +\n                                1;\n                            break;\n                        }\n                    }\n                }\n            }\n        }\n    }\n\n    function reEvaluateValidator(address consensusAddress)\n        private\n        returns (bool)\n    {\n        if (\n            validators[validatorsMap[consensusAddress] - 1].stakeAmount <\n            MIN_VALIDATOR_STAKE_AMOUNT\n        ) {\n            uint256 index = validatorsMap[consensusAddress];\n            for (uint256 i = index; i < validators.length - 1; i++) {\n                validators[i] = validators[i + 1]; // shift left\n                validatorsMap[validators[i].consensusAddress] = i + 1;\n            }\n            payable(consensusAddress).transfer(\n                validators[validatorsMap[consensusAddress] - 1].stakeAmount\n            );\n            // TODO : deal with the delegation of this validator.\n            validators.pop();\n            delete validatorsMap[consensusAddress];\n            return false;\n        }\n        return true;\n    }\n\n    function rePositionValidator(address consensusAddress, bool operation)\n        public\n        onlyStakePoolContractAndThisContract\n    {\n        // operation true for top up and false for withdraw\n        uint256 index = validatorsMap[consensusAddress] - 1;\n        uint256 this_totalPower = getTotalPower(consensusAddress);\n        if (operation) {\n            // top up\n            if (index == 0) {\n                return; // already the largest\n            }\n            if (\n                this_totalPower >= getTotalPower(validators[0].consensusAddress)\n            ) {\n                // become the top\n                Validator memory v = validators[index];\n                for (uint256 i = index; i > 0; i--) {\n                    validators[i] = validators[i - 1]; // shift right\n                    validatorsMap[validators[i].consensusAddress] = i + 1;\n                }\n                validators[0] = v;\n                validatorsMap[v.consensusAddress] = 1;\n                return;\n            }\n            for (uint256 i = index; i > 0; i--) {\n                // look to the left\n                if (\n                    getTotalPower(validators[i - 1].consensusAddress) >\n                    this_totalPower\n                ) {\n                    // found the should-be place\n                    Validator memory v = validators[index];\n                    for (uint256 j = index; j > i; j--) {\n                        validators[j] = validators[j - 1]; // shift right\n                        validatorsMap[validators[j].consensusAddress] = j + 1;\n                    }\n                    validators[i] = v;\n                    validatorsMap[v.consensusAddress] = i + 1;\n                    return;\n                }\n            }\n        } else {\n            // withdraw\n            if (index == validators.length) {\n                return; // already the smallest\n            }\n            if (\n                this_totalPower <=\n                getTotalPower(\n                    validators[validators.length - 1].consensusAddress\n                )\n            ) {\n                // become the least\n                Validator memory v = validators[index];\n                for (uint256 i = index; i < validators.length - 1; i++) {\n                    validators[i] = validators[i + 1]; // shift left\n                    validatorsMap[validators[i].consensusAddress] = i + 1;\n                }\n                validators[validators.length - 1] = v;\n                validatorsMap[v.consensusAddress] = validators.length;\n                return;\n            }\n            for (uint256 i = index; i < validators.length; i++) {\n                // look to the right\n                if (\n                    getTotalPower(validators[i + 1].consensusAddress) <\n                    this_totalPower\n                ) {\n                    // found the should-be place\n                    Validator memory v = validators[index];\n                    for (uint256 j = index; j < i; j++) {\n                        validators[j] = validators[j + 1]; // shift left\n                        validatorsMap[validators[j].consensusAddress] = j + 1;\n                    }\n                    validators[i] = v;\n                    validatorsMap[v.consensusAddress] = i + 1;\n                    return;\n                }\n            }\n        }\n    }\n}\n",
  "sourcePath": "/Users/sakonthephamongkhol/Downloads/Intern/BKC-PoSA/truffle/contracts/ValidatorPool.sol",
  "compiler": {
    "name": "solc",
    "version": "0.8.6+commit.11564f7e.Emscripten.clang"
  },
  "schemaVersion": "3.4.1",
  "updatedAt": "2021-06-29T11:03:19.752Z",
  "networkType": "ethereum",
  "devdoc": {
    "kind": "dev",
    "methods": {},
    "version": 1
  },
  "userdoc": {
    "kind": "user",
    "methods": {},
    "version": 1
  }
}